{
  "contractName": "Linkable",
  "abi": [
    {
      "constant": true,
      "inputs": [],
      "name": "linkedAddress",
      "outputs": [
        {
          "name": "",
          "type": "address"
        }
      ],
      "payable": false,
      "stateMutability": "view",
      "type": "function"
    },
    {
      "inputs": [
        {
          "name": "addressToLink",
          "type": "address"
        }
      ],
      "payable": false,
      "stateMutability": "nonpayable",
      "type": "constructor"
    }
  ],
  "bytecode": "0x6060604052341561000f57600080fd5b60405160208061019d83398101604052808051906020019091905050600073ffffffffffffffffffffffffffffffffffffffff168173ffffffffffffffffffffffffffffffffffffffff161415151561006757600080fd5b806000806101000a81548173ffffffffffffffffffffffffffffffffffffffff021916908373ffffffffffffffffffffffffffffffffffffffff1602179055505060e7806100b66000396000f300606060405260043610603f576000357c0100000000000000000000000000000000000000000000000000000000900463ffffffff1680637bb55cd2146044575b600080fd5b3415604e57600080fd5b60546096565b604051808273ffffffffffffffffffffffffffffffffffffffff1673ffffffffffffffffffffffffffffffffffffffff16815260200191505060405180910390f35b6000809054906101000a900473ffffffffffffffffffffffffffffffffffffffff16815600a165627a7a72305820c8e7aae20a486c5d5dccec6a1a1bad6da16c6c437bd7de8899571580342a23740029",
  "source": "/*\n    Copyright 2017-2018 Phillip A. Elsasser\n\n    Licensed under the Apache License, Version 2.0 (the \"License\");\n    you may not use this file except in compliance with the License.\n    You may obtain a copy of the License at\n\n    http://www.apache.org/licenses/LICENSE-2.0\n\n    Unless required by applicable law or agreed to in writing, software\n    distributed under the License is distributed on an \"AS IS\" BASIS,\n    WITHOUT WARRANTIES OR CONDITIONS OF ANY KIND, either express or implied.\n    See the License for the specific language governing permissions and\n    limitations under the License.\n*/\n\npragma solidity ^0.4.18;\n\n\n/// @title Linkable\n/// @notice allows contracts to become linked together that are not directly created by one another for gas\n/// constraints. Linking occurs at instantiation and then once linked there is no ability to change the linkedAddress\n/// @author Phil Elsasser <phil@marketprotocol.io>\ncontract Linkable {\n\n    address public linkedAddress;\n\n    function Linkable(address addressToLink) public {\n        require(addressToLink != address(0));\n        linkedAddress = addressToLink;\n    }\n\n    modifier onlyLinked() {\n        require(msg.sender == linkedAddress);\n        _;\n    }\n}\n\n",
  "sourcePath": "/home/parallels/MARKETProtocol/contracts/Linkable.sol",
  "compiler": {
    "name": "solc",
    "version": "0.4.19+commit.c4cbbb05.Emscripten.clang"
  },
  "schemaVersion": "2.0.0",
  "updatedAt": "2018-04-08T07:58:21.480Z"
}