{
  "contractName": "MarketContractOraclize",
  "abi": [
    {
      "constant": true,
      "inputs": [],
      "name": "creator",
      "outputs": [
        {
          "name": "",
          "type": "address"
        }
      ],
      "payable": false,
      "stateMutability": "view",
      "type": "function"
    },
    {
      "constant": true,
      "inputs": [],
      "name": "lastPrice",
      "outputs": [
        {
          "name": "",
          "type": "uint256"
        }
      ],
      "payable": false,
      "stateMutability": "view",
      "type": "function"
    },
    {
      "constant": true,
      "inputs": [],
      "name": "lastPriceQueryResult",
      "outputs": [
        {
          "name": "",
          "type": "string"
        }
      ],
      "payable": false,
      "stateMutability": "view",
      "type": "function"
    },
    {
      "constant": true,
      "inputs": [],
      "name": "BASE_TOKEN",
      "outputs": [
        {
          "name": "",
          "type": "address"
        }
      ],
      "payable": false,
      "stateMutability": "view",
      "type": "function"
    },
    {
      "constant": true,
      "inputs": [],
      "name": "PRICE_DECIMAL_PLACES",
      "outputs": [
        {
          "name": "",
          "type": "uint256"
        }
      ],
      "payable": false,
      "stateMutability": "view",
      "type": "function"
    },
    {
      "constant": true,
      "inputs": [],
      "name": "isSettled",
      "outputs": [
        {
          "name": "",
          "type": "bool"
        }
      ],
      "payable": false,
      "stateMutability": "view",
      "type": "function"
    },
    {
      "constant": true,
      "inputs": [],
      "name": "isCollateralPoolContractLinked",
      "outputs": [
        {
          "name": "",
          "type": "bool"
        }
      ],
      "payable": false,
      "stateMutability": "view",
      "type": "function"
    },
    {
      "constant": true,
      "inputs": [],
      "name": "QUERY_CALLBACK_GAS",
      "outputs": [
        {
          "name": "",
          "type": "uint256"
        }
      ],
      "payable": false,
      "stateMutability": "view",
      "type": "function"
    },
    {
      "constant": true,
      "inputs": [
        {
          "name": "orderHash",
          "type": "bytes32"
        }
      ],
      "name": "getQtyFilledOrCancelledFromOrder",
      "outputs": [
        {
          "name": "",
          "type": "int256"
        }
      ],
      "payable": false,
      "stateMutability": "view",
      "type": "function"
    },
    {
      "constant": true,
      "inputs": [],
      "name": "ORACLE_DATA_SOURCE",
      "outputs": [
        {
          "name": "",
          "type": "string"
        }
      ],
      "payable": false,
      "stateMutability": "view",
      "type": "function"
    },
    {
      "constant": true,
      "inputs": [],
      "name": "ORACLE_QUERY",
      "outputs": [
        {
          "name": "",
          "type": "string"
        }
      ],
      "payable": false,
      "stateMutability": "view",
      "type": "function"
    },
    {
      "constant": true,
      "inputs": [],
      "name": "CONTRACT_NAME",
      "outputs": [
        {
          "name": "",
          "type": "string"
        }
      ],
      "payable": false,
      "stateMutability": "view",
      "type": "function"
    },
    {
      "constant": true,
      "inputs": [],
      "name": "BASE_TOKEN_ADDRESS",
      "outputs": [
        {
          "name": "",
          "type": "address"
        }
      ],
      "payable": false,
      "stateMutability": "view",
      "type": "function"
    },
    {
      "constant": true,
      "inputs": [],
      "name": "MKT_TOKEN_ADDRESS",
      "outputs": [
        {
          "name": "",
          "type": "address"
        }
      ],
      "payable": false,
      "stateMutability": "view",
      "type": "function"
    },
    {
      "constant": true,
      "inputs": [],
      "name": "marketCollateralPoolAddress",
      "outputs": [
        {
          "name": "",
          "type": "address"
        }
      ],
      "payable": false,
      "stateMutability": "view",
      "type": "function"
    },
    {
      "constant": false,
      "inputs": [
        {
          "name": "orderAddresses",
          "type": "address[3]"
        },
        {
          "name": "unsignedOrderValues",
          "type": "uint256[5]"
        },
        {
          "name": "orderQty",
          "type": "int256"
        },
        {
          "name": "qtyToFill",
          "type": "int256"
        },
        {
          "name": "v",
          "type": "uint8"
        },
        {
          "name": "r",
          "type": "bytes32"
        },
        {
          "name": "s",
          "type": "bytes32"
        }
      ],
      "name": "tradeOrder",
      "outputs": [
        {
          "name": "filledQty",
          "type": "int256"
        }
      ],
      "payable": false,
      "stateMutability": "nonpayable",
      "type": "function"
    },
    {
      "constant": true,
      "inputs": [],
      "name": "PRICE_CAP",
      "outputs": [
        {
          "name": "",
          "type": "uint256"
        }
      ],
      "payable": false,
      "stateMutability": "view",
      "type": "function"
    },
    {
      "constant": true,
      "inputs": [],
      "name": "EXPIRATION",
      "outputs": [
        {
          "name": "",
          "type": "uint256"
        }
      ],
      "payable": false,
      "stateMutability": "view",
      "type": "function"
    },
    {
      "constant": false,
      "inputs": [
        {
          "name": "poolAddress",
          "type": "address"
        }
      ],
      "name": "setCollateralPoolContractAddress",
      "outputs": [],
      "payable": false,
      "stateMutability": "nonpayable",
      "type": "function"
    },
    {
      "constant": true,
      "inputs": [],
      "name": "PRICE_FLOOR",
      "outputs": [
        {
          "name": "",
          "type": "uint256"
        }
      ],
      "payable": false,
      "stateMutability": "view",
      "type": "function"
    },
    {
      "constant": true,
      "inputs": [],
      "name": "QTY_MULTIPLIER",
      "outputs": [
        {
          "name": "",
          "type": "uint256"
        }
      ],
      "payable": false,
      "stateMutability": "view",
      "type": "function"
    },
    {
      "constant": true,
      "inputs": [],
      "name": "settlementPrice",
      "outputs": [
        {
          "name": "",
          "type": "uint256"
        }
      ],
      "payable": false,
      "stateMutability": "view",
      "type": "function"
    },
    {
      "constant": false,
      "inputs": [
        {
          "name": "newCreator",
          "type": "address"
        }
      ],
      "name": "transferCreator",
      "outputs": [],
      "payable": false,
      "stateMutability": "nonpayable",
      "type": "function"
    },
    {
      "constant": false,
      "inputs": [
        {
          "name": "orderAddresses",
          "type": "address[3]"
        },
        {
          "name": "unsignedOrderValues",
          "type": "uint256[5]"
        },
        {
          "name": "orderQty",
          "type": "int256"
        },
        {
          "name": "qtyToCancel",
          "type": "int256"
        }
      ],
      "name": "cancelOrder",
      "outputs": [
        {
          "name": "qtyCancelled",
          "type": "int256"
        }
      ],
      "payable": false,
      "stateMutability": "nonpayable",
      "type": "function"
    },
    {
      "inputs": [
        {
          "name": "contractName",
          "type": "string"
        },
        {
          "name": "marketTokenAddress",
          "type": "address"
        },
        {
          "name": "baseTokenAddress",
          "type": "address"
        },
        {
          "name": "contractSpecs",
          "type": "uint256[5]"
        },
        {
          "name": "oracleDataSource",
          "type": "string"
        },
        {
          "name": "oracleQuery",
          "type": "string"
        }
      ],
      "payable": false,
      "stateMutability": "nonpayable",
      "type": "constructor"
    },
    {
      "anonymous": false,
      "inputs": [
        {
          "indexed": false,
          "name": "price",
          "type": "string"
        }
      ],
      "name": "UpdatedLastPrice",
      "type": "event"
    },
    {
      "anonymous": false,
      "inputs": [
        {
          "indexed": false,
          "name": "settlePrice",
          "type": "uint256"
        }
      ],
      "name": "ContractSettled",
      "type": "event"
    },
    {
      "anonymous": false,
      "inputs": [
        {
          "indexed": true,
          "name": "user",
          "type": "address"
        },
        {
          "indexed": false,
          "name": "balance",
          "type": "uint256"
        }
      ],
      "name": "UpdatedUserBalance",
      "type": "event"
    },
    {
      "anonymous": false,
      "inputs": [
        {
          "indexed": false,
          "name": "balance",
          "type": "uint256"
        }
      ],
      "name": "UpdatedPoolBalance",
      "type": "event"
    },
    {
      "anonymous": false,
      "inputs": [
        {
          "indexed": true,
          "name": "errorCode",
          "type": "uint8"
        },
        {
          "indexed": true,
          "name": "orderHash",
          "type": "bytes32"
        }
      ],
      "name": "Error",
      "type": "event"
    },
    {
      "anonymous": false,
      "inputs": [
        {
          "indexed": true,
          "name": "maker",
          "type": "address"
        },
        {
          "indexed": true,
          "name": "taker",
          "type": "address"
        },
        {
          "indexed": true,
          "name": "feeRecipient",
          "type": "address"
        },
        {
          "indexed": false,
          "name": "filledQty",
          "type": "int256"
        },
        {
          "indexed": false,
          "name": "paidMakerFee",
          "type": "uint256"
        },
        {
          "indexed": false,
          "name": "paidTakerFee",
          "type": "uint256"
        },
        {
          "indexed": false,
          "name": "orderHash",
          "type": "bytes32"
        }
      ],
      "name": "OrderFilled",
      "type": "event"
    },
    {
      "anonymous": false,
      "inputs": [
        {
          "indexed": true,
          "name": "maker",
          "type": "address"
        },
        {
          "indexed": true,
          "name": "feeRecipient",
          "type": "address"
        },
        {
          "indexed": false,
          "name": "cancelledQty",
          "type": "int256"
        },
        {
          "indexed": true,
          "name": "orderHash",
          "type": "bytes32"
        }
      ],
      "name": "OrderCancelled",
      "type": "event"
    },
    {
      "anonymous": false,
      "inputs": [
        {
          "indexed": true,
          "name": "currentCreator",
          "type": "address"
        },
        {
          "indexed": true,
          "name": "newCreator",
          "type": "address"
        }
      ],
      "name": "CreatorTransferred",
      "type": "event"
    },
    {
      "constant": false,
      "inputs": [],
      "name": "requestEarlySettlement",
      "outputs": [],
      "payable": true,
      "stateMutability": "payable",
      "type": "function"
    },
    {
      "constant": false,
      "inputs": [
        {
          "name": "myid",
          "type": "bytes32"
        },
        {
          "name": "result",
          "type": "string"
        }
      ],
      "name": "__callback",
      "outputs": [],
      "payable": false,
      "stateMutability": "nonpayable",
      "type": "function"
    },
    {
      "constant": false,
      "inputs": [
        {
          "name": "queryID",
          "type": "bytes32"
        },
        {
          "name": "result",
          "type": "string"
        },
        {
          "name": "proof",
          "type": "bytes"
        }
      ],
      "name": "__callback",
      "outputs": [],
      "payable": false,
      "stateMutability": "nonpayable",
      "type": "function"
    }
  ],
  "bytecode": "0x60606040526000600d60006101000a81548160ff0219169083151502179055506000600d60016101000a81548160ff02191690831515021790555034156200004657600080fd5b60405162005d3038038062005d30833981016040528080518201919060200180519060200190919080519060200190918160a001805182019190602001805182019190505085858585336000806101000a81548173ffffffffffffffffffffffffffffffffffffffff021916908373ffffffffffffffffffffffffffffffffffffffff16021790555082600160006101000a81548173ffffffffffffffffffffffffffffffffffffffff021916908373ffffffffffffffffffffffffffffffffffffffff16021790555082600260006101000a81548173ffffffffffffffffffffffffffffffffffffffff021916908373ffffffffffffffffffffffffffffffffffffffff160217905550600260009054906101000a900473ffffffffffffffffffffffffffffffffffffffff1673ffffffffffffffffffffffffffffffffffffffff166384281dcc336000604051602001526040518263ffffffff167c0100000000000000000000000000000000000000000000000000000000028152600401808273ffffffffffffffffffffffffffffffffffffffff1673ffffffffffffffffffffffffffffffffffffffff168152602001915050602060405180830381600087803b15156200021757600080fd5b6102c65a03f115156200022957600080fd5b5050506040518051905015156200023f57600080fd5b8060006005811015156200024f57fe5b60200201516007819055508060016005811015156200026a57fe5b60200201516006819055506007546006541115156200028857600080fd5b8060026005811015156200029857fe5b6020020151600881905550806003600581101515620002b357fe5b6020020151600981905550806004600581101515620002ce57fe5b6020020151600a8190555042600a54111515620002ea57600080fd5b836003908051906020019062000302929190620014f2565b5081600460006101000a81548173ffffffffffffffffffffffffffffffffffffffff021916908373ffffffffffffffffffffffffffffffffffffffff16021790555081600560006101000a81548173ffffffffffffffffffffffffffffffffffffffff021916908373ffffffffffffffffffffffffffffffffffffffff16021790555050505050620003f060017f01000000000000000000000000000000000000000000000000000000000000000260107f01000000000000000000000000000000000000000000000000000000000000000217620004746401000000000262003d29176401000000009004565b816014908051906020019062000408929190620014f2565b50806015908051906020019062000421929190620014f2565b5042600a541115156200043357600080fd5b624f1a0042600a5403111515156200044a57600080fd5b62000468620007ff640100000000026200407f176401000000009004565b505050505050620015a1565b6000601160009054906101000a900473ffffffffffffffffffffffffffffffffffffffff1673ffffffffffffffffffffffffffffffffffffffff161480620004fc57506000620004fa601160009054906101000a900473ffffffffffffffffffffffffffffffffffffffff166200099d6401000000000262003457176401000000009004565b145b156200052457620005226000620009a86401000000000262003462176401000000009004565b505b601160009054906101000a900473ffffffffffffffffffffffffffffffffffffffff1673ffffffffffffffffffffffffffffffffffffffff166338cc48316000604051602001526040518163ffffffff167c0100000000000000000000000000000000000000000000000000000000028152600401602060405180830381600087803b1515620005b357600080fd5b6102c65a03f11515620005c557600080fd5b5050506040518051905073ffffffffffffffffffffffffffffffffffffffff16601260009054906101000a900473ffffffffffffffffffffffffffffffffffffffff1673ffffffffffffffffffffffffffffffffffffffff161415156200071257601160009054906101000a900473ffffffffffffffffffffffffffffffffffffffff1673ffffffffffffffffffffffffffffffffffffffff166338cc48316000604051602001526040518163ffffffff167c0100000000000000000000000000000000000000000000000000000000028152600401602060405180830381600087803b1515620006b557600080fd5b6102c65a03f11515620006c757600080fd5b50505060405180519050601260006101000a81548173ffffffffffffffffffffffffffffffffffffffff021916908373ffffffffffffffffffffffffffffffffffffffff1602179055505b601260009054906101000a900473ffffffffffffffffffffffffffffffffffffffff1673ffffffffffffffffffffffffffffffffffffffff1663688dcfd7826040518263ffffffff167c010000000000000000000000000000000000000000000000000000000002815260040180827effffffffffffffffffffffffffffffffffffffffffffffffffffffffffffff19167effffffffffffffffffffffffffffffffffffffffffffffffffffffffffffff19168152602001915050600060405180830381600087803b1515620007e757600080fd5b6102c65a03f11515620007f957600080fd5b50505050565b600062000964600a5460148054600181600116156101000203166002900480601f016020809104026020016040519081016040528092919081815260200182805460018160011615610100020316600290048015620008a25780601f106200087657610100808354040283529160200191620008a2565b820191906000526020600020905b8154815290600101906020018083116200088457829003601f168201915b505050505060158054600181600116156101000203166002900480601f016020809104026020016040519081016040528092919081815260200182805460018160011615610100020316600290048015620009415780601f10620009155761010080835404028352916020019162000941565b820191906000526020600020905b8154815290600101906020018083116200092357829003601f168201915b5050505050620249f062000f4064010000000002620041ff176401000000009004565b9050600160176000836000191660001916815260200190815260200160002060006101000a81548160ff02191690831515021790555050565b6000813b9050919050565b600080620009de731d3b2638a7cc9f2cb3d298a3da7a90b67e5506ed6200099d6401000000000262003457176401000000009004565b111562000a9857731d3b2638a7cc9f2cb3d298a3da7a90b67e5506ed601160006101000a81548173ffffffffffffffffffffffffffffffffffffffff021916908373ffffffffffffffffffffffffffffffffffffffff16021790555062000a8e6040805190810160405280600b81526020017f6574685f6d61696e6e6574000000000000000000000000000000000000000000815250620014d66401000000000262003bc4176401000000009004565b6001905062000f3b565b600062000acd73c03a2615d5efaf5f49f60b7bb6583eaec212fdf16200099d6401000000000262003457176401000000009004565b111562000b875773c03a2615d5efaf5f49f60b7bb6583eaec212fdf1601160006101000a81548173ffffffffffffffffffffffffffffffffffffffff021916908373ffffffffffffffffffffffffffffffffffffffff16021790555062000b7d6040805190810160405280600c81526020017f6574685f726f707374656e330000000000000000000000000000000000000000815250620014d66401000000000262003bc4176401000000009004565b6001905062000f3b565b600062000bbc73b7a07bcf2ba2f2703b24c0691b5278999c59ac7e6200099d6401000000000262003457176401000000009004565b111562000c765773b7a07bcf2ba2f2703b24c0691b5278999c59ac7e601160006101000a81548173ffffffffffffffffffffffffffffffffffffffff021916908373ffffffffffffffffffffffffffffffffffffffff16021790555062000c6c6040805190810160405280600981526020017f6574685f6b6f76616e0000000000000000000000000000000000000000000000815250620014d66401000000000262003bc4176401000000009004565b6001905062000f3b565b600062000cab73146500cfd35b22e4a392fe0adc06de1a1368ed486200099d6401000000000262003457176401000000009004565b111562000d655773146500cfd35b22e4a392fe0adc06de1a1368ed48601160006101000a81548173ffffffffffffffffffffffffffffffffffffffff021916908373ffffffffffffffffffffffffffffffffffffffff16021790555062000d5b6040805190810160405280600b81526020017f6574685f72696e6b656279000000000000000000000000000000000000000000815250620014d66401000000000262003bc4176401000000009004565b6001905062000f3b565b600062000d9a736f485c8bf6fc43ea212e93bbf8ce046c7f1cb4756200099d6401000000000262003457176401000000009004565b111562000e0057736f485c8bf6fc43ea212e93bbf8ce046c7f1cb475601160006101000a81548173ffffffffffffffffffffffffffffffffffffffff021916908373ffffffffffffffffffffffffffffffffffffffff1602179055506001905062000f3b565b600062000e357320e12a1f859b3feae5fb2a0a32c18f5a65555bbf6200099d6401000000000262003457176401000000009004565b111562000e9b577320e12a1f859b3feae5fb2a0a32c18f5a65555bbf601160006101000a81548173ffffffffffffffffffffffffffffffffffffffff021916908373ffffffffffffffffffffffffffffffffffffffff1602179055506001905062000f3b565b600062000ed07351efaf4c8b3c9afbd5ab9f4bbc82784ab6ef8faa6200099d6401000000000262003457176401000000009004565b111562000f36577351efaf4c8b3c9afbd5ab9f4bbc82784ab6ef8faa601160006101000a81548173ffffffffffffffffffffffffffffffffffffffff021916908373ffffffffffffffffffffffffffffffffffffffff1602179055506001905062000f3b565b600090505b919050565b6000806000601160009054906101000a900473ffffffffffffffffffffffffffffffffffffffff1673ffffffffffffffffffffffffffffffffffffffff16148062000fcb5750600062000fc9601160009054906101000a900473ffffffffffffffffffffffffffffffffffffffff166200099d6401000000000262003457176401000000009004565b145b1562000ff35762000ff16000620009a86401000000000262003462176401000000009004565b505b601160009054906101000a900473ffffffffffffffffffffffffffffffffffffffff1673ffffffffffffffffffffffffffffffffffffffff166338cc48316000604051602001526040518163ffffffff167c0100000000000000000000000000000000000000000000000000000000028152600401602060405180830381600087803b15156200108257600080fd5b6102c65a03f115156200109457600080fd5b5050506040518051905073ffffffffffffffffffffffffffffffffffffffff16601260009054906101000a900473ffffffffffffffffffffffffffffffffffffffff1673ffffffffffffffffffffffffffffffffffffffff16141515620011e157601160009054906101000a900473ffffffffffffffffffffffffffffffffffffffff1673ffffffffffffffffffffffffffffffffffffffff166338cc48316000604051602001526040518163ffffffff167c0100000000000000000000000000000000000000000000000000000000028152600401602060405180830381600087803b15156200118457600080fd5b6102c65a03f115156200119657600080fd5b50505060405180519050601260006101000a81548173ffffffffffffffffffffffffffffffffffffffff021916908373ffffffffffffffffffffffffffffffffffffffff1602179055505b601260009054906101000a900473ffffffffffffffffffffffffffffffffffffffff1673ffffffffffffffffffffffffffffffffffffffff16632ef3accc86856000604051602001526040518363ffffffff167c01000000000000000000000000000000000000000000000000000000000281526004018080602001838152602001828103825284818151815260200191508051906020019080838360005b838110156200129d57808201518184015260208101905062001280565b50505050905090810190601f168015620012cb5780820380516001836020036101000a031916815260200191505b509350505050602060405180830381600087803b1515620012eb57600080fd5b6102c65a03f11515620012fd57600080fd5b505050604051805190509050823a02670de0b6b3a7640000018111156200132b5760006001029150620014cd565b601260009054906101000a900473ffffffffffffffffffffffffffffffffffffffff1673ffffffffffffffffffffffffffffffffffffffff1663c51be90f82888888886000604051602001526040518663ffffffff167c0100000000000000000000000000000000000000000000000000000000028152600401808581526020018060200180602001848152602001838103835286818151815260200191508051906020019080838360005b83811015620013f4578082015181840152602081019050620013d7565b50505050905090810190601f168015620014225780820380516001836020036101000a031916815260200191505b50838103825285818151815260200191508051906020019080838360005b838110156200145d57808201518184015260208101905062001440565b50505050905090810190601f1680156200148b5780820380516001836020036101000a031916815260200191505b5096505050505050506020604051808303818588803b1515620014ad57600080fd5b6125ee5a03f11515620014bf57600080fd5b505050506040518051905091505b50949350505050565b8060139080519060200190620014ee929190620014f2565b5050565b828054600181600116156101000203166002900490600052602060002090601f016020900481019282601f106200153557805160ff191683800117855562001566565b8280016001018555821562001566579182015b828111156200156557825182559160200191906001019062001548565b5b50905062001575919062001579565b5090565b6200159e91905b808211156200159a57600081600090555060010162001580565b5090565b90565b61477f80620015b16000396000f30060606040526004361061015f576000357c0100000000000000000000000000000000000000000000000000000000900463ffffffff16806302d05d3f14610164578063053f14da146101b95780630c8eb675146101e2578063210663e41461027057806327dc297e146102c55780632fed1b001461032f5780633270bb5b1461035857806338bbfa50146103855780633b3c4ae914610432578063411449bb1461045f5780634c258eb11461048857806356357d91146104c35780635ea7867a14610551578063614d08f8146105df5780636cee3abb1461066d5780636db7f77c146106c2578063798ddbc8146106cc57806390253ade14610721578063930a9d9214610776578063b5471dee146107ea578063bb4b573414610813578063c201293b1461083c578063c32b1dfa14610875578063ca361d671461089e578063f348e8b2146108c7578063fa3fa196146108f0578063fc51b9c514610929575b600080fd5b341561016f57600080fd5b610177610977565b604051808273ffffffffffffffffffffffffffffffffffffffff1673ffffffffffffffffffffffffffffffffffffffff16815260200191505060405180910390f35b34156101c457600080fd5b6101cc61099c565b6040518082815260200191505060405180910390f35b34156101ed57600080fd5b6101f56109a2565b6040518080602001828103825283818151815260200191508051906020019080838360005b8381101561023557808201518184015260208101905061021a565b50505050905090810190601f1680156102625780820380516001836020036101000a031916815260200191505b509250505060405180910390f35b341561027b57600080fd5b610283610a40565b604051808273ffffffffffffffffffffffffffffffffffffffff1673ffffffffffffffffffffffffffffffffffffffff16815260200191505060405180910390f35b34156102d057600080fd5b61032d60048080356000191690602001909190803590602001908201803590602001908080601f01602080910402602001604051908101604052809392919081815260200183838082843782019150505050505091905050610a66565b005b341561033a57600080fd5b610342610a98565b6040518082815260200191505060405180910390f35b341561036357600080fd5b61036b610a9e565b604051808215151515815260200191505060405180910390f35b341561039057600080fd5b61043060048080356000191690602001909190803590602001908201803590602001908080601f0160208091040260200160405190810160405280939291908181526020018383808284378201915050505050509190803590602001908201803590602001908080601f01602080910402602001604051908101604052809392919081815260200183838082843782019150505050505091905050610ab1565b005b341561043d57600080fd5b610445610c23565b604051808215151515815260200191505060405180910390f35b341561046a57600080fd5b610472610c36565b6040518082815260200191505060405180910390f35b341561049357600080fd5b6104ad600480803560001916906020019091905050610c3d565b6040518082815260200191505060405180910390f35b34156104ce57600080fd5b6104d6610c5a565b6040518080602001828103825283818151815260200191508051906020019080838360005b838110156105165780820151818401526020810190506104fb565b50505050905090810190601f1680156105435780820380516001836020036101000a031916815260200191505b509250505060405180910390f35b341561055c57600080fd5b610564610cf8565b6040518080602001828103825283818151815260200191508051906020019080838360005b838110156105a4578082015181840152602081019050610589565b50505050905090810190601f1680156105d15780820380516001836020036101000a031916815260200191505b509250505060405180910390f35b34156105ea57600080fd5b6105f2610d96565b6040518080602001828103825283818151815260200191508051906020019080838360005b83811015610632578082015181840152602081019050610617565b50505050905090810190601f16801561065f5780820380516001836020036101000a031916815260200191505b509250505060405180910390f35b341561067857600080fd5b610680610e34565b604051808273ffffffffffffffffffffffffffffffffffffffff1673ffffffffffffffffffffffffffffffffffffffff16815260200191505060405180910390f35b6106ca610e5a565b005b34156106d757600080fd5b6106df611091565b604051808273ffffffffffffffffffffffffffffffffffffffff1673ffffffffffffffffffffffffffffffffffffffff16815260200191505060405180910390f35b341561072c57600080fd5b6107346110b7565b604051808273ffffffffffffffffffffffffffffffffffffffff1673ffffffffffffffffffffffffffffffffffffffff16815260200191505060405180910390f35b341561078157600080fd5b6107d4600480806060019091908060a001909190803590602001909190803590602001909190803560ff1690602001909190803560001916906020019091908035600019169060200190919050506110dd565b6040518082815260200191505060405180910390f35b34156107f557600080fd5b6107fd611a58565b6040518082815260200191505060405180910390f35b341561081e57600080fd5b610826611a5e565b6040518082815260200191505060405180910390f35b341561084757600080fd5b610873600480803573ffffffffffffffffffffffffffffffffffffffff16906020019091905050611a64565b005b341561088057600080fd5b610888611c99565b6040518082815260200191505060405180910390f35b34156108a957600080fd5b6108b1611c9f565b6040518082815260200191505060405180910390f35b34156108d257600080fd5b6108da611ca5565b6040518082815260200191505060405180910390f35b34156108fb57600080fd5b610927600480803573ffffffffffffffffffffffffffffffffffffffff16906020019091905050611cab565b005b341561093457600080fd5b610961600480806060019091908060a0019091908035906020019091908035906020019091905050611e00565b6040518082815260200191505060405180910390f35b6000809054906101000a900473ffffffffffffffffffffffffffffffffffffffff1681565b600b5481565b60168054600181600116156101000203166002900480601f016020809104026020016040519081016040528092919081815260200182805460018160011615610100020316600290048015610a385780601f10610a0d57610100808354040283529160200191610a38565b820191906000526020600020905b815481529060010190602001808311610a1b57829003601f168201915b505050505081565b600560009054906101000a900473ffffffffffffffffffffffffffffffffffffffff1681565b610a9482826000604051805910610a7a5750595b9080825280601f01601f1916602001820160405250610ab1565b5050565b60085481565b600d60009054906101000a900460ff1681565b610ab9612084565b73ffffffffffffffffffffffffffffffffffffffff163373ffffffffffffffffffffffffffffffffffffffff16141515610af257600080fd5b60176000846000191660001916815260200190815260200160002060009054906101000a900460ff161515610b2657600080fd5b8160169080519060200190610b3c929190613bde565b50610b498260085461239e565b600b819055507f3e19f2256bddc30aeab8054ccbd86723452d07f687b94441de69c05ee212dafa826040518080602001828103825283818151815260200191508051906020019080838360005b83811015610bb1578082015181840152602081019050610b96565b50505050905090810190601f168015610bde5780820380516001836020036101000a031916815260200191505b509250505060405180910390a1610bf3612698565b60176000846000191660001916815260200190815260200160002060006101000a81549060ff0219169055505050565b600d60019054906101000a900460ff1681565b620249f081565b6000610c5382600f61273990919063ffffffff16565b9050919050565b60148054600181600116156101000203166002900480601f016020809104026020016040519081016040528092919081815260200182805460018160011615610100020316600290048015610cf05780601f10610cc557610100808354040283529160200191610cf0565b820191906000526020600020905b815481529060010190602001808311610cd357829003601f168201915b505050505081565b60158054600181600116156101000203166002900480601f016020809104026020016040519081016040528092919081815260200182805460018160011615610100020316600290048015610d8e5780601f10610d6357610100808354040283529160200191610d8e565b820191906000526020600020905b815481529060010190602001808311610d7157829003601f168201915b505050505081565b60038054600181600116156101000203166002900480601f016020809104026020016040519081016040528092919081815260200182805460018160011615610100020316600290048015610e2c5780601f10610e0157610100808354040283529160200191610e2c565b820191906000526020600020905b815481529060010190602001808311610e0f57829003601f168201915b505050505081565b600460009054906101000a900473ffffffffffffffffffffffffffffffffffffffff1681565b600080610f0460148054600181600116156101000203166002900480601f016020809104026020016040519081016040528092919081815260200182805460018160011615610100020316600290048015610ef65780601f10610ecb57610100808354040283529160200191610ef6565b820191906000526020600020905b815481529060010190602001808311610ed957829003601f168201915b5050505050620249f0612790565b9150813410151515610f1557600080fd5b61105760148054600181600116156101000203166002900480601f016020809104026020016040519081016040528092919081815260200182805460018160011615610100020316600290048015610fae5780601f10610f8357610100808354040283529160200191610fae565b820191906000526020600020905b815481529060010190602001808311610f9157829003601f168201915b505050505060158054600181600116156101000203166002900480601f0160208091040260200160405190810160405280929190818152602001828054600181600116156101000203166002900480156110495780601f1061101e57610100808354040283529160200191611049565b820191906000526020600020905b81548152906001019060200180831161102c57829003601f168201915b5050505050620249f0612b25565b9050600160176000836000191660001916815260200190815260200160002060006101000a81548160ff0219169083151502179055505050565b600160009054906101000a900473ffffffffffffffffffffffffffffffffffffffff1681565b600d60029054906101000a900473ffffffffffffffffffffffffffffffffffffffff1681565b60006110e7613c5e565b6000806000806000600d60019054906101000a900460ff1680156111185750600d60009054906101000a900460ff16155b151561112357600080fd5b60008c14158015611135575060008b14155b8015611150575061114f8b8d61307990919063ffffffff16565b5b151561115b57600080fd5b600260009054906101000a900473ffffffffffffffffffffffffffffffffffffffff1673ffffffffffffffffffffffffffffffffffffffff1663cfab472f30336000604051602001526040518363ffffffff167c0100000000000000000000000000000000000000000000000000000000028152600401808373ffffffffffffffffffffffffffffffffffffffff1673ffffffffffffffffffffffffffffffffffffffff1681526020018273ffffffffffffffffffffffffffffffffffffffff1673ffffffffffffffffffffffffffffffffffffffff16815260200192505050602060405180830381600087803b151561125457600080fd5b6102c65a03f1151561126557600080fd5b50505060405180519050151561127a57600080fd5b6112f18e600380602002604051908101604052809291908260036020028082843782019150505050508e600580602002604051908101604052809291908260056020028082843782019150505050508e3073ffffffffffffffffffffffffffffffffffffffff16613093909392919063ffffffff16565b9550600260009054906101000a900473ffffffffffffffffffffffffffffffffffffffff1673ffffffffffffffffffffffffffffffffffffffff1663cfab472f3088600001516000604051602001526040518363ffffffff167c0100000000000000000000000000000000000000000000000000000000028152600401808373ffffffffffffffffffffffffffffffffffffffff1673ffffffffffffffffffffffffffffffffffffffff1681526020018273ffffffffffffffffffffffffffffffffffffffff1673ffffffffffffffffffffffffffffffffffffffff16815260200192505050602060405180830381600087803b15156113f057600080fd5b6102c65a03f1151561140157600080fd5b50505060405180519050151561141657600080fd5b600073ffffffffffffffffffffffffffffffffffffffff16866020015173ffffffffffffffffffffffffffffffffffffffff16148061148457503373ffffffffffffffffffffffffffffffffffffffff16866020015173ffffffffffffffffffffffffffffffffffffffff16145b151561148f57600080fd5b600073ffffffffffffffffffffffffffffffffffffffff16866000015173ffffffffffffffffffffffffffffffffffffffff16141580156115045750856020015173ffffffffffffffffffffffffffffffffffffffff16866000015173ffffffffffffffffffffffffffffffffffffffff1614155b151561150f57600080fd5b856000015173ffffffffffffffffffffffffffffffffffffffff1673__OrderLib______________________________638163681e90918861010001518d8d8d6000604051602001526040518663ffffffff167c0100000000000000000000000000000000000000000000000000000000028152600401808673ffffffffffffffffffffffffffffffffffffffff1673ffffffffffffffffffffffffffffffffffffffff16815260200185600019166000191681526020018460ff1660ff168152602001836000191660001916815260200182600019166000191681526020019550505050505060206040518083038186803b151561160d57600080fd5b6102c65a03f4151561161e57600080fd5b50505060405180519050151561163357600080fd5b8560c001514210151561168c57856101000151600019166000600181111561165757fe5b7fe6104340582083fe7674a149f8da127b9d3d7f74a88ccd7610562eb5b61b919360405160405180910390a360009650611a47565b6116ac61169d876101000151610c3d565b8d61322590919063ffffffff16565b9450600085141561170257856101000151600019166001808111156116cd57fe5b7fe6104340582083fe7674a149f8da127b9d3d7f74a88ccd7610562eb5b61b919360405160405180910390a360009650611a47565b61170c858c61323c565b9650600e60009054906101000a900473ffffffffffffffffffffffffffffffffffffffff1673ffffffffffffffffffffffffffffffffffffffff1663eeaba0838760000151338a8a60a001516040518563ffffffff167c0100000000000000000000000000000000000000000000000000000000028152600401808573ffffffffffffffffffffffffffffffffffffffff1673ffffffffffffffffffffffffffffffffffffffff1681526020018473ffffffffffffffffffffffffffffffffffffffff1673ffffffffffffffffffffffffffffffffffffffff168152602001838152602001828152602001945050505050600060405180830381600087803b151561181657600080fd5b6102c65a03f1151561182757600080fd5b50505061184586610100015188600f6132659092919063ffffffff16565b6000935060009250600073ffffffffffffffffffffffffffffffffffffffff16866040015173ffffffffffffffffffffffffffffffffffffffff1614151561199a57611890876132bb565b915061189b876132bb565b905060008660600151111561191d576118c3828288606001516132d99092919063ffffffff16565b935061191c8660000151876040015186600260009054906101000a900473ffffffffffffffffffffffffffffffffffffffff1673ffffffffffffffffffffffffffffffffffffffff166132f9909392919063ffffffff16565b5b60008660800151111561199957611943828288608001516132d99092919063ffffffff16565b925061199833876040015185600260009054906101000a900473ffffffffffffffffffffffffffffffffffffffff1673ffffffffffffffffffffffffffffffffffffffff166132f9909392919063ffffffff16565b5b5b856040015173ffffffffffffffffffffffffffffffffffffffff163373ffffffffffffffffffffffffffffffffffffffff16876000015173ffffffffffffffffffffffffffffffffffffffff167f75cbdb818111666ee7e206d94dfeb2d679055e8bc6f34b6f5d30272edd4099908a88888c610100015160405180858152602001848152602001838152602001826000191660001916815260200194505050505060405180910390a48696505b505050505050979650505050505050565b60065481565b600a5481565b6000809054906101000a900473ffffffffffffffffffffffffffffffffffffffff1673ffffffffffffffffffffffffffffffffffffffff163373ffffffffffffffffffffffffffffffffffffffff16141515611abf57600080fd5b600d60019054906101000a900460ff16151515611adb57600080fd5b600073ffffffffffffffffffffffffffffffffffffffff168173ffffffffffffffffffffffffffffffffffffffff1614151515611b1757600080fd5b80600e60006101000a81548173ffffffffffffffffffffffffffffffffffffffff021916908373ffffffffffffffffffffffffffffffffffffffff1602179055503073ffffffffffffffffffffffffffffffffffffffff16600e60009054906101000a900473ffffffffffffffffffffffffffffffffffffffff1673ffffffffffffffffffffffffffffffffffffffff16637bb55cd26000604051602001526040518163ffffffff167c0100000000000000000000000000000000000000000000000000000000028152600401602060405180830381600087803b1515611bfd57600080fd5b6102c65a03f11515611c0e57600080fd5b5050506040518051905073ffffffffffffffffffffffffffffffffffffffff16141515611c3a57600080fd5b80600d60026101000a81548173ffffffffffffffffffffffffffffffffffffffff021916908373ffffffffffffffffffffffffffffffffffffffff1602179055506001600d60016101000a81548160ff02191690831515021790555050565b60075481565b60095481565b600c5481565b6000809054906101000a900473ffffffffffffffffffffffffffffffffffffffff1673ffffffffffffffffffffffffffffffffffffffff163373ffffffffffffffffffffffffffffffffffffffff16141515611d0657600080fd5b600073ffffffffffffffffffffffffffffffffffffffff168173ffffffffffffffffffffffffffffffffffffffff1614151515611d4257600080fd5b8073ffffffffffffffffffffffffffffffffffffffff166000809054906101000a900473ffffffffffffffffffffffffffffffffffffffff1673ffffffffffffffffffffffffffffffffffffffff167f7f11fe0c7098e1a76afcc68f35abaa07ef156fa7d6dd2d39664812fe37348d1660405160405180910390a3806000806101000a81548173ffffffffffffffffffffffffffffffffffffffff021916908373ffffffffffffffffffffffffffffffffffffffff16021790555050565b6000611e0a613c5e565b6000808414158015611e2b5750611e2a858561307990919063ffffffff16565b5b1515611e3657600080fd5b600d60009054906101000a900460ff16151515611e5257600080fd5b611ec987600380602002604051908101604052809291908260036020028082843782019150505050508760058060200260405190810160405280929190826005602002808284378201915050505050873073ffffffffffffffffffffffffffffffffffffffff16613093909392919063ffffffff16565b91503373ffffffffffffffffffffffffffffffffffffffff16826000015173ffffffffffffffffffffffffffffffffffffffff16141515611f0957600080fd5b8160c0015142101515611f62578161010001516000191660006001811115611f2d57fe5b7fe6104340582083fe7674a149f8da127b9d3d7f74a88ccd7610562eb5b61b919360405160405180910390a36000925061207a565b611f82611f73836101000151610c3d565b8661322590919063ffffffff16565b90506000811415611fd85781610100015160001916600180811115611fa357fe5b7fe6104340582083fe7674a149f8da127b9d3d7f74a88ccd7610562eb5b61b919360405160405180910390a36000925061207a565b611fe2848261323c565b9250611fff82610100015184600f6134019092919063ffffffff16565b81610100015160001916826040015173ffffffffffffffffffffffffffffffffffffffff16836000015173ffffffffffffffffffffffffffffffffffffffff167f7de4479e80e82e22edb1e0010433c8befc804c34988024fa0b0234715102cd8f866040518082815260200191505060405180910390a48292505b5050949350505050565b600080601160009054906101000a900473ffffffffffffffffffffffffffffffffffffffff1673ffffffffffffffffffffffffffffffffffffffff1614806120f6575060006120f4601160009054906101000a900473ffffffffffffffffffffffffffffffffffffffff16613457565b145b15612107576121056000613462565b505b601160009054906101000a900473ffffffffffffffffffffffffffffffffffffffff1673ffffffffffffffffffffffffffffffffffffffff166338cc48316000604051602001526040518163ffffffff167c0100000000000000000000000000000000000000000000000000000000028152600401602060405180830381600087803b151561219557600080fd5b6102c65a03f115156121a657600080fd5b5050506040518051905073ffffffffffffffffffffffffffffffffffffffff16601260009054906101000a900473ffffffffffffffffffffffffffffffffffffffff1673ffffffffffffffffffffffffffffffffffffffff161415156122f057601160009054906101000a900473ffffffffffffffffffffffffffffffffffffffff1673ffffffffffffffffffffffffffffffffffffffff166338cc48316000604051602001526040518163ffffffff167c0100000000000000000000000000000000000000000000000000000000028152600401602060405180830381600087803b151561229457600080fd5b6102c65a03f115156122a557600080fd5b50505060405180519050601260006101000a81548173ffffffffffffffffffffffffffffffffffffffff021916908373ffffffffffffffffffffffffffffffffffffffff1602179055505b601260009054906101000a900473ffffffffffffffffffffffffffffffffffffffff1673ffffffffffffffffffffffffffffffffffffffff1663c281d19e6000604051602001526040518163ffffffff167c0100000000000000000000000000000000000000000000000000000000028152600401602060405180830381600087803b151561237e57600080fd5b6102c65a03f1151561238f57600080fd5b50505060405180519050905090565b60006123a8613cf0565b60008060008693506000925060009150600090505b83518110156126795760307f01000000000000000000000000000000000000000000000000000000000000000284828151811015156123f857fe5b9060200101517f010000000000000000000000000000000000000000000000000000000000000090047f0100000000000000000000000000000000000000000000000000000000000000027effffffffffffffffffffffffffffffffffffffffffffffffffffffffffffff191610158015612510575060397f01000000000000000000000000000000000000000000000000000000000000000284828151811015156124a057fe5b9060200101517f010000000000000000000000000000000000000000000000000000000000000090047f0100000000000000000000000000000000000000000000000000000000000000027effffffffffffffffffffffffffffffffffffffffffffffffffffffffffffff191611155b156125c157811561253357600086141561252957612679565b8580600190039650505b600a830292506030848281518110151561254957fe5b9060200101517f010000000000000000000000000000000000000000000000000000000000000090047f0100000000000000000000000000000000000000000000000000000000000000027f01000000000000000000000000000000000000000000000000000000000000009004038301925061266c565b602e7f01000000000000000000000000000000000000000000000000000000000000000284828151811015156125f357fe5b9060200101517f010000000000000000000000000000000000000000000000000000000000000090047f0100000000000000000000000000000000000000000000000000000000000000027effffffffffffffffffffffffffffffffffffffffffffffffffffffffffffff1916141561266b57600191505b5b80806001019150506123bd565b600086111561268b5785600a0a830292505b8294505050505092915050565b600d60009054906101000a900460ff16156126b257612737565b600a544211156126dc576001600d60006101000a81548160ff021916908315150217905550612715565b600654600b541015806126f35750600754600b5411155b15612714576001600d60006101000a81548160ff0219169083151502179055505b5b600d60009054906101000a900460ff161561273657612735600b546138fa565b5b5b565b600061278883600101600084600019166000191681526020019081526020016000205484600001600085600019166000191681526020019081526020016000205461393b90919063ffffffff16565b905092915050565b600080601160009054906101000a900473ffffffffffffffffffffffffffffffffffffffff1673ffffffffffffffffffffffffffffffffffffffff16148061280257506000612800601160009054906101000a900473ffffffffffffffffffffffffffffffffffffffff16613457565b145b15612813576128116000613462565b505b601160009054906101000a900473ffffffffffffffffffffffffffffffffffffffff1673ffffffffffffffffffffffffffffffffffffffff166338cc48316000604051602001526040518163ffffffff167c0100000000000000000000000000000000000000000000000000000000028152600401602060405180830381600087803b15156128a157600080fd5b6102c65a03f115156128b257600080fd5b5050506040518051905073ffffffffffffffffffffffffffffffffffffffff16601260009054906101000a900473ffffffffffffffffffffffffffffffffffffffff1673ffffffffffffffffffffffffffffffffffffffff161415156129fc57601160009054906101000a900473ffffffffffffffffffffffffffffffffffffffff1673ffffffffffffffffffffffffffffffffffffffff166338cc48316000604051602001526040518163ffffffff167c0100000000000000000000000000000000000000000000000000000000028152600401602060405180830381600087803b15156129a057600080fd5b6102c65a03f115156129b157600080fd5b50505060405180519050601260006101000a81548173ffffffffffffffffffffffffffffffffffffffff021916908373ffffffffffffffffffffffffffffffffffffffff1602179055505b601260009054906101000a900473ffffffffffffffffffffffffffffffffffffffff1673ffffffffffffffffffffffffffffffffffffffff16632ef3accc84846000604051602001526040518363ffffffff167c01000000000000000000000000000000000000000000000000000000000281526004018080602001838152602001828103825284818151815260200191508051906020019080838360005b83811015612ab6578082015181840152602081019050612a9b565b50505050905090810190601f168015612ae35780820380516001836020036101000a031916815260200191505b509350505050602060405180830381600087803b1515612b0257600080fd5b6102c65a03f11515612b1357600080fd5b50505060405180519050905092915050565b6000806000601160009054906101000a900473ffffffffffffffffffffffffffffffffffffffff1673ffffffffffffffffffffffffffffffffffffffff161480612b9957506000612b97601160009054906101000a900473ffffffffffffffffffffffffffffffffffffffff16613457565b145b15612baa57612ba86000613462565b505b601160009054906101000a900473ffffffffffffffffffffffffffffffffffffffff1673ffffffffffffffffffffffffffffffffffffffff166338cc48316000604051602001526040518163ffffffff167c0100000000000000000000000000000000000000000000000000000000028152600401602060405180830381600087803b1515612c3857600080fd5b6102c65a03f11515612c4957600080fd5b5050506040518051905073ffffffffffffffffffffffffffffffffffffffff16601260009054906101000a900473ffffffffffffffffffffffffffffffffffffffff1673ffffffffffffffffffffffffffffffffffffffff16141515612d9357601160009054906101000a900473ffffffffffffffffffffffffffffffffffffffff1673ffffffffffffffffffffffffffffffffffffffff166338cc48316000604051602001526040518163ffffffff167c0100000000000000000000000000000000000000000000000000000000028152600401602060405180830381600087803b1515612d3757600080fd5b6102c65a03f11515612d4857600080fd5b50505060405180519050601260006101000a81548173ffffffffffffffffffffffffffffffffffffffff021916908373ffffffffffffffffffffffffffffffffffffffff1602179055505b601260009054906101000a900473ffffffffffffffffffffffffffffffffffffffff1673ffffffffffffffffffffffffffffffffffffffff16632ef3accc86856000604051602001526040518363ffffffff167c01000000000000000000000000000000000000000000000000000000000281526004018080602001838152602001828103825284818151815260200191508051906020019080838360005b83811015612e4d578082015181840152602081019050612e32565b50505050905090810190601f168015612e7a5780820380516001836020036101000a031916815260200191505b509350505050602060405180830381600087803b1515612e9957600080fd5b6102c65a03f11515612eaa57600080fd5b505050604051805190509050823a02670de0b6b3a764000001811115612ed65760006001029150613071565b601260009054906101000a900473ffffffffffffffffffffffffffffffffffffffff1673ffffffffffffffffffffffffffffffffffffffff1663c51be90f8260008888886000604051602001526040518663ffffffff167c0100000000000000000000000000000000000000000000000000000000028152600401808581526020018060200180602001848152602001838103835286818151815260200191508051906020019080838360005b83811015612f9e578082015181840152602081019050612f83565b50505050905090810190601f168015612fcb5780820380516001836020036101000a031916815260200191505b50838103825285818151815260200191508051906020019080838360005b83811015613004578082015181840152602081019050612fe9565b50505050905090810190601f1680156130315780820380516001836020036101000a031916815260200191505b5096505050505050506020604051808303818588803b151561305257600080fd5b6125ee5a03f1151561306357600080fd5b505050506040518051905091505b509392505050565b60008183148061308b57506000828402135b905092915050565b61309b613c5e565b8360006003811015156130aa57fe5b6020020151816000019073ffffffffffffffffffffffffffffffffffffffff16908173ffffffffffffffffffffffffffffffffffffffff16815250508360016003811015156130f557fe5b6020020151816020019073ffffffffffffffffffffffffffffffffffffffff16908173ffffffffffffffffffffffffffffffffffffffff168152505083600260038110151561314057fe5b6020020151816040019073ffffffffffffffffffffffffffffffffffffffff16908173ffffffffffffffffffffffffffffffffffffffff168152505082600060058110151561318b57fe5b60200201518160600181815250508260016005811015156131a857fe5b60200201518160800181815250508260026005811015156131c557fe5b60200201518160a00181815250508260036005811015156131e257fe5b60200201518160c0018181525050818160e0018181525050613206858585856139a3565b8161010001906000191690816000191681525050809050949350505050565b6000613234838360000361393b565b905092915050565b6000613247826132bb565b613250846132bb565b1061325b578161325d565b825b905092915050565b6132958184600001600085600019166000191681526020019081526020016000205461393b90919063ffffffff16565b836000016000846000191660001916815260200190815260200160002081905550505050565b6000808212156132d0578160000390506132d4565b8190505b919050565b6000816132e68585613b91565b8115156132ef57fe5b0490509392505050565b8373ffffffffffffffffffffffffffffffffffffffff166323b872dd8484846000604051602001526040518463ffffffff167c0100000000000000000000000000000000000000000000000000000000028152600401808473ffffffffffffffffffffffffffffffffffffffff1673ffffffffffffffffffffffffffffffffffffffff1681526020018373ffffffffffffffffffffffffffffffffffffffff1673ffffffffffffffffffffffffffffffffffffffff1681526020018281526020019350505050602060405180830381600087803b15156133d857600080fd5b6102c65a03f115156133e957600080fd5b5050506040518051905015156133fb57fe5b50505050565b6134318184600101600085600019166000191681526020019081526020016000205461393b90919063ffffffff16565b836001016000846000191660001916815260200190815260200160002081905550505050565b6000813b9050919050565b600080613482731d3b2638a7cc9f2cb3d298a3da7a90b67e5506ed613457565b111561352457731d3b2638a7cc9f2cb3d298a3da7a90b67e5506ed601160006101000a81548173ffffffffffffffffffffffffffffffffffffffff021916908373ffffffffffffffffffffffffffffffffffffffff16021790555061351b6040805190810160405280600b81526020017f6574685f6d61696e6e6574000000000000000000000000000000000000000000815250613bc4565b600190506138f5565b600061354373c03a2615d5efaf5f49f60b7bb6583eaec212fdf1613457565b11156135e55773c03a2615d5efaf5f49f60b7bb6583eaec212fdf1601160006101000a81548173ffffffffffffffffffffffffffffffffffffffff021916908373ffffffffffffffffffffffffffffffffffffffff1602179055506135dc6040805190810160405280600c81526020017f6574685f726f707374656e330000000000000000000000000000000000000000815250613bc4565b600190506138f5565b600061360473b7a07bcf2ba2f2703b24c0691b5278999c59ac7e613457565b11156136a65773b7a07bcf2ba2f2703b24c0691b5278999c59ac7e601160006101000a81548173ffffffffffffffffffffffffffffffffffffffff021916908373ffffffffffffffffffffffffffffffffffffffff16021790555061369d6040805190810160405280600981526020017f6574685f6b6f76616e0000000000000000000000000000000000000000000000815250613bc4565b600190506138f5565b60006136c573146500cfd35b22e4a392fe0adc06de1a1368ed48613457565b11156137675773146500cfd35b22e4a392fe0adc06de1a1368ed48601160006101000a81548173ffffffffffffffffffffffffffffffffffffffff021916908373ffffffffffffffffffffffffffffffffffffffff16021790555061375e6040805190810160405280600b81526020017f6574685f72696e6b656279000000000000000000000000000000000000000000815250613bc4565b600190506138f5565b6000613786736f485c8bf6fc43ea212e93bbf8ce046c7f1cb475613457565b11156137ea57736f485c8bf6fc43ea212e93bbf8ce046c7f1cb475601160006101000a81548173ffffffffffffffffffffffffffffffffffffffff021916908373ffffffffffffffffffffffffffffffffffffffff160217905550600190506138f5565b60006138097320e12a1f859b3feae5fb2a0a32c18f5a65555bbf613457565b111561386d577320e12a1f859b3feae5fb2a0a32c18f5a65555bbf601160006101000a81548173ffffffffffffffffffffffffffffffffffffffff021916908373ffffffffffffffffffffffffffffffffffffffff160217905550600190506138f5565b600061388c7351efaf4c8b3c9afbd5ab9f4bbc82784ab6ef8faa613457565b11156138f0577351efaf4c8b3c9afbd5ab9f4bbc82784ab6ef8faa601160006101000a81548173ffffffffffffffffffffffffffffffffffffffff021916908373ffffffffffffffffffffffffffffffffffffffff160217905550600190506138f5565b600090505b919050565b80600c819055507f68170b705528d3ff1d324cda28eb28cc3d11ce81207f157c05e11c18411a013c816040518082815260200191505060405180910390a150565b600080828401905061394d8484613079565b151561395b5780915061399c565b600084121515613981578360ff60019060020a021903831315151561397c57fe5b613998565b8360ff60019060020a0203831215151561399757fe5b5b8091505b5092915050565b6000848460006003811015156139b557fe5b60200201518560016003811015156139c957fe5b60200201518660026003811015156139dd57fe5b60200201518660006005811015156139f157fe5b6020020151876001600581101515613a0557fe5b6020020151886002600581101515613a1957fe5b6020020151896003600581101515613a2d57fe5b60200201518a6004600581101515613a4157fe5b60200201518a604051808b73ffffffffffffffffffffffffffffffffffffffff1673ffffffffffffffffffffffffffffffffffffffff166c010000000000000000000000000281526014018a73ffffffffffffffffffffffffffffffffffffffff1673ffffffffffffffffffffffffffffffffffffffff166c010000000000000000000000000281526014018973ffffffffffffffffffffffffffffffffffffffff1673ffffffffffffffffffffffffffffffffffffffff166c010000000000000000000000000281526014018873ffffffffffffffffffffffffffffffffffffffff1673ffffffffffffffffffffffffffffffffffffffff166c010000000000000000000000000281526014018781526020018681526020018581526020018481526020018381526020018281526020019a505050505050505050505060405180910390209050949350505050565b60008082840290506000841480613bb25750828482811515613baf57fe5b04145b1515613bba57fe5b8091505092915050565b8060139080519060200190613bda929190613bde565b5050565b828054600181600116156101000203166002900490600052602060002090601f016020900481019282601f10613c1f57805160ff1916838001178555613c4d565b82800160010185558215613c4d579182015b82811115613c4c578251825591602001919060010190613c31565b5b509050613c5a9190613d04565b5090565b61012060405190810160405280600073ffffffffffffffffffffffffffffffffffffffff168152602001600073ffffffffffffffffffffffffffffffffffffffff168152602001600073ffffffffffffffffffffffffffffffffffffffff1681526020016000815260200160008152602001600081526020016000815260200160008152602001600080191681525090565b602060405190810160405280600081525090565b613d2691905b80821115613d22576000816000905550600101613d0a565b5090565b90565b6000601160009054906101000a900473ffffffffffffffffffffffffffffffffffffffff1673ffffffffffffffffffffffffffffffffffffffff161480613d9a57506000613d98601160009054906101000a900473ffffffffffffffffffffffffffffffffffffffff16613457565b145b15613dab57613da96000613462565b505b601160009054906101000a900473ffffffffffffffffffffffffffffffffffffffff1673ffffffffffffffffffffffffffffffffffffffff166338cc48316000604051602001526040518163ffffffff167c0100000000000000000000000000000000000000000000000000000000028152600401602060405180830381600087803b1515613e3957600080fd5b6102c65a03f11515613e4a57600080fd5b5050506040518051905073ffffffffffffffffffffffffffffffffffffffff16601260009054906101000a900473ffffffffffffffffffffffffffffffffffffffff1673ffffffffffffffffffffffffffffffffffffffff16141515613f9457601160009054906101000a900473ffffffffffffffffffffffffffffffffffffffff1673ffffffffffffffffffffffffffffffffffffffff166338cc48316000604051602001526040518163ffffffff167c0100000000000000000000000000000000000000000000000000000000028152600401602060405180830381600087803b1515613f3857600080fd5b6102c65a03f11515613f4957600080fd5b50505060405180519050601260006101000a81548173ffffffffffffffffffffffffffffffffffffffff021916908373ffffffffffffffffffffffffffffffffffffffff1602179055505b601260009054906101000a900473ffffffffffffffffffffffffffffffffffffffff1673ffffffffffffffffffffffffffffffffffffffff1663688dcfd7826040518263ffffffff167c010000000000000000000000000000000000000000000000000000000002815260040180827effffffffffffffffffffffffffffffffffffffffffffffffffffffffffffff19167effffffffffffffffffffffffffffffffffffffffffffffffffffffffffffff19168152602001915050600060405180830381600087803b151561406857600080fd5b6102c65a03f1151561407957600080fd5b50505050565b60006141c6600a5460148054600181600116156101000203166002900480601f01602080910402602001604051908101604052809291908181526020018280546001816001161561010002031660029004801561411d5780601f106140f25761010080835404028352916020019161411d565b820191906000526020600020905b81548152906001019060200180831161410057829003601f168201915b505050505060158054600181600116156101000203166002900480601f0160208091040260200160405190810160405280929190818152602001828054600181600116156101000203166002900480156141b85780601f1061418d576101008083540402835291602001916141b8565b820191906000526020600020905b81548152906001019060200180831161419b57829003601f168201915b5050505050620249f06141ff565b9050600160176000836000191660001916815260200190815260200160002060006101000a81548160ff02191690831515021790555050565b6000806000601160009054906101000a900473ffffffffffffffffffffffffffffffffffffffff1673ffffffffffffffffffffffffffffffffffffffff16148061427357506000614271601160009054906101000a900473ffffffffffffffffffffffffffffffffffffffff16613457565b145b15614284576142826000613462565b505b601160009054906101000a900473ffffffffffffffffffffffffffffffffffffffff1673ffffffffffffffffffffffffffffffffffffffff166338cc48316000604051602001526040518163ffffffff167c0100000000000000000000000000000000000000000000000000000000028152600401602060405180830381600087803b151561431257600080fd5b6102c65a03f1151561432357600080fd5b5050506040518051905073ffffffffffffffffffffffffffffffffffffffff16601260009054906101000a900473ffffffffffffffffffffffffffffffffffffffff1673ffffffffffffffffffffffffffffffffffffffff1614151561446d57601160009054906101000a900473ffffffffffffffffffffffffffffffffffffffff1673ffffffffffffffffffffffffffffffffffffffff166338cc48316000604051602001526040518163ffffffff167c0100000000000000000000000000000000000000000000000000000000028152600401602060405180830381600087803b151561441157600080fd5b6102c65a03f1151561442257600080fd5b50505060405180519050601260006101000a81548173ffffffffffffffffffffffffffffffffffffffff021916908373ffffffffffffffffffffffffffffffffffffffff1602179055505b601260009054906101000a900473ffffffffffffffffffffffffffffffffffffffff1673ffffffffffffffffffffffffffffffffffffffff16632ef3accc86856000604051602001526040518363ffffffff167c01000000000000000000000000000000000000000000000000000000000281526004018080602001838152602001828103825284818151815260200191508051906020019080838360005b8381101561452757808201518184015260208101905061450c565b50505050905090810190601f1680156145545780820380516001836020036101000a031916815260200191505b509350505050602060405180830381600087803b151561457357600080fd5b6102c65a03f1151561458457600080fd5b505050604051805190509050823a02670de0b6b3a7640000018111156145b0576000600102915061474a565b601260009054906101000a900473ffffffffffffffffffffffffffffffffffffffff1673ffffffffffffffffffffffffffffffffffffffff1663c51be90f82888888886000604051602001526040518663ffffffff167c0100000000000000000000000000000000000000000000000000000000028152600401808581526020018060200180602001848152602001838103835286818151815260200191508051906020019080838360005b8381101561467757808201518184015260208101905061465c565b50505050905090810190601f1680156146a45780820380516001836020036101000a031916815260200191505b50838103825285818151815260200191508051906020019080838360005b838110156146dd5780820151818401526020810190506146c2565b50505050905090810190601f16801561470a5780820380516001836020036101000a031916815260200191505b5096505050505050506020604051808303818588803b151561472b57600080fd5b6125ee5a03f1151561473c57600080fd5b505050506040518051905091505b509493505050505600a165627a7a72305820b1d191822c86021329d726d9da6cf6dbdef3661673608ae1e1abcefd3b48c6410029",
  "source": "/*\n    Copyright 2017-2018 Phillip A. Elsasser\n\n    Licensed under the Apache License, Version 2.0 (the \"License\");\n    you may not use this file except in compliance with the License.\n    You may obtain a copy of the License at\n\n    http://www.apache.org/licenses/LICENSE-2.0\n\n    Unless required by applicable law or agreed to in writing, software\n    distributed under the License is distributed on an \"AS IS\" BASIS,\n    WITHOUT WARRANTIES OR CONDITIONS OF ANY KIND, either express or implied.\n    See the License for the specific language governing permissions and\n    limitations under the License.\n*/\n\npragma solidity ^0.4.18;\n\nimport \"./oraclizeAPI.sol\";\nimport \"../libraries/MathLib.sol\";\nimport \"../MarketContract.sol\";\n\n\n/// @title MarketContract first example of a MarketProtocol contract using Oraclize services\n/// @author Phil Elsasser <phil@marketprotocol.io>\ncontract MarketContractOraclize is MarketContract, usingOraclize {\n    using MathLib for uint;\n\n    // constants\n    string public ORACLE_DATA_SOURCE;\n    string public ORACLE_QUERY;\n    uint constant public QUERY_CALLBACK_GAS = 150000;\n    uint constant SECONDS_PER_SIXTY_DAYS = 60 * 60 * 24 * 60;\n    //uint constant public QUERY_CALLBACK_GAS_PRICE = 20000000000 wei; // 20 gwei - need to make this dynamic!\n\n    // state variables\n    string public lastPriceQueryResult;\n    mapping(bytes32 => bool) validQueryIDs;\n\n    /// @param contractName viewable name of this contract (BTC/ETH, LTC/ETH, etc)\n    /// @param marketTokenAddress address of our member token\n    /// @param baseTokenAddress address of the ERC20 token that will be used for collateral and pricing\n    /// @param contractSpecs array of unsigned integers including:\n    /// floorPrice minimum tradeable price of this contract, contract enters settlement if breached\n    /// capPrice maximum tradeable price of this contract, contract enters settlement if breached\n    /// priceDecimalPlaces number of decimal places to convert our queried price from a floating point to\n    /// an integer\n    /// qtyMultiplier multiply traded qty by this value from base units of collateral token.\n    /// expirationTimeStamp - seconds from epoch that this contract expires and enters settlement\n    /// @param oracleDataSource a data-source such as \"URL\", \"WolframAlpha\", \"IPFS\"\n    /// see http://docs.oraclize.it/#ethereum-quick-start-simple-query\n    /// @param oracleQuery see http://docs.oraclize.it/#ethereum-quick-start-simple-query for examples\n    function MarketContractOraclize(\n        string contractName,\n        address marketTokenAddress,\n        address baseTokenAddress,\n        uint[5] contractSpecs,\n        string oracleDataSource,\n        string oracleQuery\n    ) MarketContract(\n        contractName,\n        marketTokenAddress,\n        baseTokenAddress,\n        contractSpecs\n    )  public\n    {\n        oraclize_setProof(proofType_TLSNotary | proofStorage_IPFS);\n        //oraclize_setCustomGasPrice(QUERY_CALLBACK_GAS_PRICE);  //TODO: allow this to be changed by creator.\n        ORACLE_DATA_SOURCE = oracleDataSource;\n        ORACLE_QUERY = oracleQuery;\n        require(EXPIRATION > now);         // Require expiration time in the future.\n\n        // Future timestamp must be within 60 days from now.\n        // https://docs.oraclize.it/#ethereum-quick-start-schedule-a-query-in-the-future\n        require(EXPIRATION - now <= SECONDS_PER_SIXTY_DAYS);\n        queryOracle();                      // Schedule a call to oracle at contract expiration time.\n    }\n\n    /// @notice allows a user to request an extra query to oracle in order to push the contract into\n    /// settlement.  A user may call this as many times as they like, since they are the ones paying for\n    /// the call to our oracle and post processing. This is useful for both a failsafe and as a way to\n    /// settle a contract early if a price cap or floor has been breached.\n    function requestEarlySettlement() external payable {\n        uint cost = oraclize_getPrice(ORACLE_DATA_SOURCE, QUERY_CALLBACK_GAS);\n        require(msg.value >= cost); // user must pay enough to cover query and callback\n        // create immediate query, we must make sure to store this one separately, so\n        // we do not schedule recursive callbacks when the query completes.\n        bytes32 queryId = oraclize_query(\n            ORACLE_DATA_SOURCE,\n            ORACLE_QUERY,\n            QUERY_CALLBACK_GAS\n        );\n        validQueryIDs[queryId] = true;\n    }\n\n    /*\n    // PUBLIC METHODS\n    */\n\n    /// @notice only public for callbacks from oraclize, do not call\n    /// @param queryID of the returning query, this should match our own internal mapping\n    /// @param result query to be processed\n    /// @param proof result proof\n    function __callback(bytes32 queryID, string result, bytes proof) public {\n        require(msg.sender == oraclize_cbAddress());\n        require(validQueryIDs[queryID]);  // At expiration or early settlement.\n        lastPriceQueryResult = result;\n        lastPrice = parseInt(result, PRICE_DECIMAL_PLACES);\n        UpdatedLastPrice(result);\n        checkSettlement();  // Verify settlement at expiration or requested early settlement.\n        delete validQueryIDs[queryID];\n    }\n\n    /*\n    // PRIVATE METHODS\n    */\n\n    /// @dev call to oraclize to set up our query and record its hash.\n    function queryOracle() private {\n        // Require that sufficient funds are available to pay for the query.\n        // require(oraclize_getPrice(ORACLE_DATA_SOURCE, QUERY_CALLBACK_GAS) < this.balance);\n        // NOTE: Currently the first oracle query call to oraclize.it is free. Since our\n        // expiration query will always be the first, there is no needed pre-funding amount\n        // to create this query.  When we go to the centralized query hub - this will change\n        // due to the fact that the address creating the query will always be the query hub.\n        // will have to do the analysis to see which is cheaper, free queries, or lower deployment\n        // gas costs\n        bytes32 queryId = oraclize_query(\n            EXPIRATION,\n            ORACLE_DATA_SOURCE,\n            ORACLE_QUERY,\n            QUERY_CALLBACK_GAS\n        );\n        validQueryIDs[queryId] = true;\n    }\n}",
  "sourcePath": "/home/parallels/MARKETProtocol/contracts/oraclize/MarketContractOraclize.sol",
  "compiler": {
    "name": "solc",
    "version": "0.4.19+commit.c4cbbb05.Emscripten.clang"
  },
  "schemaVersion": "2.0.0",
  "updatedAt": "2018-04-10T02:08:58.194Z"
}