{
  "contractName": "MarketToken",
  "abi": [
    {
      "constant": true,
      "inputs": [],
      "name": "creator",
      "outputs": [
        {
          "name": "",
          "type": "address"
        }
      ],
      "payable": false,
      "stateMutability": "view",
      "type": "function"
    },
    {
      "constant": true,
      "inputs": [],
      "name": "name",
      "outputs": [
        {
          "name": "",
          "type": "string"
        }
      ],
      "payable": false,
      "stateMutability": "view",
      "type": "function"
    },
    {
      "constant": false,
      "inputs": [
        {
          "name": "_spender",
          "type": "address"
        },
        {
          "name": "_value",
          "type": "uint256"
        }
      ],
      "name": "approve",
      "outputs": [
        {
          "name": "",
          "type": "bool"
        }
      ],
      "payable": false,
      "stateMutability": "nonpayable",
      "type": "function"
    },
    {
      "constant": true,
      "inputs": [],
      "name": "totalSupply",
      "outputs": [
        {
          "name": "",
          "type": "uint256"
        }
      ],
      "payable": false,
      "stateMutability": "view",
      "type": "function"
    },
    {
      "constant": false,
      "inputs": [
        {
          "name": "_from",
          "type": "address"
        },
        {
          "name": "_to",
          "type": "address"
        },
        {
          "name": "_value",
          "type": "uint256"
        }
      ],
      "name": "transferFrom",
      "outputs": [
        {
          "name": "",
          "type": "bool"
        }
      ],
      "payable": false,
      "stateMutability": "nonpayable",
      "type": "function"
    },
    {
      "constant": true,
      "inputs": [],
      "name": "INITIAL_SUPPLY",
      "outputs": [
        {
          "name": "",
          "type": "uint256"
        }
      ],
      "payable": false,
      "stateMutability": "view",
      "type": "function"
    },
    {
      "constant": true,
      "inputs": [],
      "name": "decimals",
      "outputs": [
        {
          "name": "",
          "type": "uint8"
        }
      ],
      "payable": false,
      "stateMutability": "view",
      "type": "function"
    },
    {
      "constant": false,
      "inputs": [
        {
          "name": "_spender",
          "type": "address"
        },
        {
          "name": "_subtractedValue",
          "type": "uint256"
        }
      ],
      "name": "decreaseApproval",
      "outputs": [
        {
          "name": "",
          "type": "bool"
        }
      ],
      "payable": false,
      "stateMutability": "nonpayable",
      "type": "function"
    },
    {
      "constant": true,
      "inputs": [],
      "name": "minBalanceToAllowContractCreation",
      "outputs": [
        {
          "name": "",
          "type": "uint256"
        }
      ],
      "payable": false,
      "stateMutability": "view",
      "type": "function"
    },
    {
      "constant": true,
      "inputs": [
        {
          "name": "_owner",
          "type": "address"
        }
      ],
      "name": "balanceOf",
      "outputs": [
        {
          "name": "balance",
          "type": "uint256"
        }
      ],
      "payable": false,
      "stateMutability": "view",
      "type": "function"
    },
    {
      "constant": true,
      "inputs": [],
      "name": "lockQtyToAllowTrading",
      "outputs": [
        {
          "name": "",
          "type": "uint256"
        }
      ],
      "payable": false,
      "stateMutability": "view",
      "type": "function"
    },
    {
      "constant": true,
      "inputs": [],
      "name": "symbol",
      "outputs": [
        {
          "name": "",
          "type": "string"
        }
      ],
      "payable": false,
      "stateMutability": "view",
      "type": "function"
    },
    {
      "constant": false,
      "inputs": [
        {
          "name": "_to",
          "type": "address"
        },
        {
          "name": "_value",
          "type": "uint256"
        }
      ],
      "name": "transfer",
      "outputs": [
        {
          "name": "",
          "type": "bool"
        }
      ],
      "payable": false,
      "stateMutability": "nonpayable",
      "type": "function"
    },
    {
      "constant": false,
      "inputs": [
        {
          "name": "_spender",
          "type": "address"
        },
        {
          "name": "_addedValue",
          "type": "uint256"
        }
      ],
      "name": "increaseApproval",
      "outputs": [
        {
          "name": "",
          "type": "bool"
        }
      ],
      "payable": false,
      "stateMutability": "nonpayable",
      "type": "function"
    },
    {
      "constant": true,
      "inputs": [
        {
          "name": "_owner",
          "type": "address"
        },
        {
          "name": "_spender",
          "type": "address"
        }
      ],
      "name": "allowance",
      "outputs": [
        {
          "name": "",
          "type": "uint256"
        }
      ],
      "payable": false,
      "stateMutability": "view",
      "type": "function"
    },
    {
      "constant": false,
      "inputs": [
        {
          "name": "newCreator",
          "type": "address"
        }
      ],
      "name": "transferCreator",
      "outputs": [],
      "payable": false,
      "stateMutability": "nonpayable",
      "type": "function"
    },
    {
      "inputs": [
        {
          "name": "qtyToLockForTrading",
          "type": "uint256"
        },
        {
          "name": "minBalanceForCreation",
          "type": "uint256"
        }
      ],
      "payable": false,
      "stateMutability": "nonpayable",
      "type": "constructor"
    },
    {
      "anonymous": false,
      "inputs": [
        {
          "indexed": true,
          "name": "contractAddress",
          "type": "address"
        },
        {
          "indexed": true,
          "name": "userAddress",
          "type": "address"
        },
        {
          "indexed": false,
          "name": "balance",
          "type": "uint256"
        }
      ],
      "name": "UpdatedUserLockedBalance",
      "type": "event"
    },
    {
      "anonymous": false,
      "inputs": [
        {
          "indexed": true,
          "name": "currentCreator",
          "type": "address"
        },
        {
          "indexed": true,
          "name": "newCreator",
          "type": "address"
        }
      ],
      "name": "CreatorTransferred",
      "type": "event"
    },
    {
      "anonymous": false,
      "inputs": [
        {
          "indexed": true,
          "name": "owner",
          "type": "address"
        },
        {
          "indexed": true,
          "name": "spender",
          "type": "address"
        },
        {
          "indexed": false,
          "name": "value",
          "type": "uint256"
        }
      ],
      "name": "Approval",
      "type": "event"
    },
    {
      "anonymous": false,
      "inputs": [
        {
          "indexed": true,
          "name": "from",
          "type": "address"
        },
        {
          "indexed": true,
          "name": "to",
          "type": "address"
        },
        {
          "indexed": false,
          "name": "value",
          "type": "uint256"
        }
      ],
      "name": "Transfer",
      "type": "event"
    },
    {
      "constant": true,
      "inputs": [
        {
          "name": "marketContractAddress",
          "type": "address"
        },
        {
          "name": "userAddress",
          "type": "address"
        }
      ],
      "name": "isUserEnabledForContract",
      "outputs": [
        {
          "name": "",
          "type": "bool"
        }
      ],
      "payable": false,
      "stateMutability": "view",
      "type": "function"
    },
    {
      "constant": true,
      "inputs": [
        {
          "name": "userAddress",
          "type": "address"
        }
      ],
      "name": "isBalanceSufficientForContractCreation",
      "outputs": [
        {
          "name": "",
          "type": "bool"
        }
      ],
      "payable": false,
      "stateMutability": "view",
      "type": "function"
    },
    {
      "constant": false,
      "inputs": [
        {
          "name": "marketContractAddress",
          "type": "address"
        },
        {
          "name": "qtyToLock",
          "type": "uint256"
        }
      ],
      "name": "lockTokensForTradingMarketContract",
      "outputs": [],
      "payable": false,
      "stateMutability": "nonpayable",
      "type": "function"
    },
    {
      "constant": false,
      "inputs": [
        {
          "name": "marketContractAddress",
          "type": "address"
        },
        {
          "name": "qtyToUnlock",
          "type": "uint256"
        }
      ],
      "name": "unlockTokens",
      "outputs": [],
      "payable": false,
      "stateMutability": "nonpayable",
      "type": "function"
    },
    {
      "constant": true,
      "inputs": [
        {
          "name": "marketContractAddress",
          "type": "address"
        },
        {
          "name": "userAddress",
          "type": "address"
        }
      ],
      "name": "getLockedBalanceForUser",
      "outputs": [
        {
          "name": "",
          "type": "uint256"
        }
      ],
      "payable": false,
      "stateMutability": "view",
      "type": "function"
    },
    {
      "constant": false,
      "inputs": [
        {
          "name": "qtyToLock",
          "type": "uint256"
        }
      ],
      "name": "setLockQtyToAllowTrading",
      "outputs": [],
      "payable": false,
      "stateMutability": "nonpayable",
      "type": "function"
    },
    {
      "constant": false,
      "inputs": [
        {
          "name": "minBalance",
          "type": "uint256"
        }
      ],
      "name": "setMinBalanceForContractCreation",
      "outputs": [],
      "payable": false,
      "stateMutability": "nonpayable",
      "type": "function"
    }
  ],
  "bytecode": "0x6060604052341561000f57600080fd5b604051604080611eb88339810160405280805190602001909190805190602001909190505033600360006101000a81548173ffffffffffffffffffffffffffffffffffffffff021916908373ffffffffffffffffffffffffffffffffffffffff16021790555081600481905550806005819055506b033b2e3c9fd0803ce80000006000819055506b033b2e3c9fd0803ce8000000600160003373ffffffffffffffffffffffffffffffffffffffff1673ffffffffffffffffffffffffffffffffffffffff168152602001908152602001600020819055505050611dc1806100f76000396000f300606060405260043610610133576000357c0100000000000000000000000000000000000000000000000000000000900463ffffffff16806302d05d3f1461013857806306fdde031461018d578063095ea7b31461021b57806318160ddd1461027557806323b872dd1461029e5780632ff2e9dc14610317578063313ce567146103405780633cad7c4e1461036f5780634f1e43341461039257806366188463146103b55780636e8c57e61461040f57806370a08231146104385780637e3475a81461048557806384281dcc146104ae57806395d89b41146104ff5780639d564d9a1461058d578063a9059cbb146105cf578063aafd775e14610629578063cfab472f14610695578063d229a94a14610705578063d73dd62314610747578063dd62ed3e146107a1578063fa3fa1961461080d575b600080fd5b341561014357600080fd5b61014b610846565b604051808273ffffffffffffffffffffffffffffffffffffffff1673ffffffffffffffffffffffffffffffffffffffff16815260200191505060405180910390f35b341561019857600080fd5b6101a061086c565b6040518080602001828103825283818151815260200191508051906020019080838360005b838110156101e05780820151818401526020810190506101c5565b50505050905090810190601f16801561020d5780820380516001836020036101000a031916815260200191505b509250505060405180910390f35b341561022657600080fd5b61025b600480803573ffffffffffffffffffffffffffffffffffffffff169060200190919080359060200190919050506108a5565b604051808215151515815260200191505060405180910390f35b341561028057600080fd5b610288610997565b6040518082815260200191505060405180910390f35b34156102a957600080fd5b6102fd600480803573ffffffffffffffffffffffffffffffffffffffff1690602001909190803573ffffffffffffffffffffffffffffffffffffffff1690602001909190803590602001909190505061099d565b604051808215151515815260200191505060405180910390f35b341561032257600080fd5b61032a610d5c565b6040518082815260200191505060405180910390f35b341561034b57600080fd5b610353610d6c565b604051808260ff1660ff16815260200191505060405180910390f35b341561037a57600080fd5b6103906004808035906020019091905050610d71565b005b341561039d57600080fd5b6103b36004808035906020019091905050610dd7565b005b34156103c057600080fd5b6103f5600480803573ffffffffffffffffffffffffffffffffffffffff16906020019091908035906020019091905050610e3d565b604051808215151515815260200191505060405180910390f35b341561041a57600080fd5b6104226110ce565b6040518082815260200191505060405180910390f35b341561044357600080fd5b61046f600480803573ffffffffffffffffffffffffffffffffffffffff169060200190919050506110d4565b6040518082815260200191505060405180910390f35b341561049057600080fd5b61049861111d565b6040518082815260200191505060405180910390f35b34156104b957600080fd5b6104e5600480803573ffffffffffffffffffffffffffffffffffffffff16906020019091905050611123565b604051808215151515815260200191505060405180910390f35b341561050a57600080fd5b610512611171565b6040518080602001828103825283818151815260200191508051906020019080838360005b83811015610552578082015181840152602081019050610537565b50505050905090810190601f16801561057f5780820380516001836020036101000a031916815260200191505b509250505060405180910390f35b341561059857600080fd5b6105cd600480803573ffffffffffffffffffffffffffffffffffffffff169060200190919080359060200190919050506111aa565b005b34156105da57600080fd5b61060f600480803573ffffffffffffffffffffffffffffffffffffffff16906020019091908035906020019091905050611331565b604051808215151515815260200191505060405180910390f35b341561063457600080fd5b61067f600480803573ffffffffffffffffffffffffffffffffffffffff1690602001909190803573ffffffffffffffffffffffffffffffffffffffff16906020019091905050611555565b6040518082815260200191505060405180910390f35b34156106a057600080fd5b6106eb600480803573ffffffffffffffffffffffffffffffffffffffff1690602001909190803573ffffffffffffffffffffffffffffffffffffffff169060200190919050506115dc565b604051808215151515815260200191505060405180910390f35b341561071057600080fd5b610745600480803573ffffffffffffffffffffffffffffffffffffffff16906020019091908035906020019091905050611668565b005b341561075257600080fd5b610787600480803573ffffffffffffffffffffffffffffffffffffffff169060200190919080359060200190919050506117f1565b604051808215151515815260200191505060405180910390f35b34156107ac57600080fd5b6107f7600480803573ffffffffffffffffffffffffffffffffffffffff1690602001909190803573ffffffffffffffffffffffffffffffffffffffff169060200190919050506119ed565b6040518082815260200191505060405180910390f35b341561081857600080fd5b610844600480803573ffffffffffffffffffffffffffffffffffffffff16906020019091905050611a74565b005b600360009054906101000a900473ffffffffffffffffffffffffffffffffffffffff1681565b6040805190810160405280600c81526020017f4d61726b657420546f6b656e000000000000000000000000000000000000000081525081565b600081600260003373ffffffffffffffffffffffffffffffffffffffff1673ffffffffffffffffffffffffffffffffffffffff16815260200190815260200160002060008573ffffffffffffffffffffffffffffffffffffffff1673ffffffffffffffffffffffffffffffffffffffff168152602001908152602001600020819055508273ffffffffffffffffffffffffffffffffffffffff163373ffffffffffffffffffffffffffffffffffffffff167f8c5be1e5ebec7d5bd14f71427d1e84f3dd0314c0f7b2291e5b200ac8c7c3b925846040518082815260200191505060405180910390a36001905092915050565b60005481565b60008073ffffffffffffffffffffffffffffffffffffffff168373ffffffffffffffffffffffffffffffffffffffff16141515156109da57600080fd5b600160008573ffffffffffffffffffffffffffffffffffffffff1673ffffffffffffffffffffffffffffffffffffffff168152602001908152602001600020548211151515610a2857600080fd5b600260008573ffffffffffffffffffffffffffffffffffffffff1673ffffffffffffffffffffffffffffffffffffffff16815260200190815260200160002060003373ffffffffffffffffffffffffffffffffffffffff1673ffffffffffffffffffffffffffffffffffffffff168152602001908152602001600020548211151515610ab357600080fd5b610b0582600160008773ffffffffffffffffffffffffffffffffffffffff1673ffffffffffffffffffffffffffffffffffffffff16815260200190815260200160002054611bcc90919063ffffffff16565b600160008673ffffffffffffffffffffffffffffffffffffffff1673ffffffffffffffffffffffffffffffffffffffff16815260200190815260200160002081905550610b9a82600160008673ffffffffffffffffffffffffffffffffffffffff1673ffffffffffffffffffffffffffffffffffffffff16815260200190815260200160002054611be590919063ffffffff16565b600160008573ffffffffffffffffffffffffffffffffffffffff1673ffffffffffffffffffffffffffffffffffffffff16815260200190815260200160002081905550610c6c82600260008773ffffffffffffffffffffffffffffffffffffffff1673ffffffffffffffffffffffffffffffffffffffff16815260200190815260200160002060003373ffffffffffffffffffffffffffffffffffffffff1673ffffffffffffffffffffffffffffffffffffffff16815260200190815260200160002054611bcc90919063ffffffff16565b600260008673ffffffffffffffffffffffffffffffffffffffff1673ffffffffffffffffffffffffffffffffffffffff16815260200190815260200160002060003373ffffffffffffffffffffffffffffffffffffffff1673ffffffffffffffffffffffffffffffffffffffff168152602001908152602001600020819055508273ffffffffffffffffffffffffffffffffffffffff168473ffffffffffffffffffffffffffffffffffffffff167fddf252ad1be2c89b69c2b068fc378daa952ba7f163c4a11628f55a4df523b3ef846040518082815260200191505060405180910390a3600190509392505050565b6b033b2e3c9fd0803ce800000081565b601281565b600360009054906101000a900473ffffffffffffffffffffffffffffffffffffffff1673ffffffffffffffffffffffffffffffffffffffff163373ffffffffffffffffffffffffffffffffffffffff16141515610dcd57600080fd5b8060048190555050565b600360009054906101000a900473ffffffffffffffffffffffffffffffffffffffff1673ffffffffffffffffffffffffffffffffffffffff163373ffffffffffffffffffffffffffffffffffffffff16141515610e3357600080fd5b8060058190555050565b600080600260003373ffffffffffffffffffffffffffffffffffffffff1673ffffffffffffffffffffffffffffffffffffffff16815260200190815260200160002060008573ffffffffffffffffffffffffffffffffffffffff1673ffffffffffffffffffffffffffffffffffffffff16815260200190815260200160002054905080831115610f4e576000600260003373ffffffffffffffffffffffffffffffffffffffff1673ffffffffffffffffffffffffffffffffffffffff16815260200190815260200160002060008673ffffffffffffffffffffffffffffffffffffffff1673ffffffffffffffffffffffffffffffffffffffff16815260200190815260200160002081905550610fe2565b610f618382611bcc90919063ffffffff16565b600260003373ffffffffffffffffffffffffffffffffffffffff1673ffffffffffffffffffffffffffffffffffffffff16815260200190815260200160002060008673ffffffffffffffffffffffffffffffffffffffff1673ffffffffffffffffffffffffffffffffffffffff168152602001908152602001600020819055505b8373ffffffffffffffffffffffffffffffffffffffff163373ffffffffffffffffffffffffffffffffffffffff167f8c5be1e5ebec7d5bd14f71427d1e84f3dd0314c0f7b2291e5b200ac8c7c3b925600260003373ffffffffffffffffffffffffffffffffffffffff1673ffffffffffffffffffffffffffffffffffffffff16815260200190815260200160002060008873ffffffffffffffffffffffffffffffffffffffff1673ffffffffffffffffffffffffffffffffffffffff168152602001908152602001600020546040518082815260200191505060405180910390a3600191505092915050565b60055481565b6000600160008373ffffffffffffffffffffffffffffffffffffffff1673ffffffffffffffffffffffffffffffffffffffff168152602001908152602001600020549050919050565b60045481565b6000600554600160008473ffffffffffffffffffffffffffffffffffffffff1673ffffffffffffffffffffffffffffffffffffffff1681526020019081526020016000205410159050919050565b6040805190810160405280600381526020017f4d4b54000000000000000000000000000000000000000000000000000000000081525081565b600061123b82600660008673ffffffffffffffffffffffffffffffffffffffff1673ffffffffffffffffffffffffffffffffffffffff16815260200190815260200160002060003373ffffffffffffffffffffffffffffffffffffffff1673ffffffffffffffffffffffffffffffffffffffff16815260200190815260200160002054611bcc90919063ffffffff16565b905080600660008573ffffffffffffffffffffffffffffffffffffffff1673ffffffffffffffffffffffffffffffffffffffff16815260200190815260200160002060003373ffffffffffffffffffffffffffffffffffffffff1673ffffffffffffffffffffffffffffffffffffffff168152602001908152602001600020819055506112c782611c03565b3373ffffffffffffffffffffffffffffffffffffffff168373ffffffffffffffffffffffffffffffffffffffff167f5893bf91422655305d16e66cf1b6ecd4645b071f6904767d5d79bd91556e3fcf836040518082815260200191505060405180910390a3505050565b60008073ffffffffffffffffffffffffffffffffffffffff168373ffffffffffffffffffffffffffffffffffffffff161415151561136e57600080fd5b600160003373ffffffffffffffffffffffffffffffffffffffff1673ffffffffffffffffffffffffffffffffffffffff1681526020019081526020016000205482111515156113bc57600080fd5b61140e82600160003373ffffffffffffffffffffffffffffffffffffffff1673ffffffffffffffffffffffffffffffffffffffff16815260200190815260200160002054611bcc90919063ffffffff16565b600160003373ffffffffffffffffffffffffffffffffffffffff1673ffffffffffffffffffffffffffffffffffffffff168152602001908152602001600020819055506114a382600160008673ffffffffffffffffffffffffffffffffffffffff1673ffffffffffffffffffffffffffffffffffffffff16815260200190815260200160002054611be590919063ffffffff16565b600160008573ffffffffffffffffffffffffffffffffffffffff1673ffffffffffffffffffffffffffffffffffffffff168152602001908152602001600020819055508273ffffffffffffffffffffffffffffffffffffffff163373ffffffffffffffffffffffffffffffffffffffff167fddf252ad1be2c89b69c2b068fc378daa952ba7f163c4a11628f55a4df523b3ef846040518082815260200191505060405180910390a36001905092915050565b6000600660008473ffffffffffffffffffffffffffffffffffffffff1673ffffffffffffffffffffffffffffffffffffffff16815260200190815260200160002060008373ffffffffffffffffffffffffffffffffffffffff1673ffffffffffffffffffffffffffffffffffffffff16815260200190815260200160002054905092915050565b6000600454600660008573ffffffffffffffffffffffffffffffffffffffff1673ffffffffffffffffffffffffffffffffffffffff16815260200190815260200160002060008473ffffffffffffffffffffffffffffffffffffffff1673ffffffffffffffffffffffffffffffffffffffff168152602001908152602001600020541015905092915050565b60006116f982600660008673ffffffffffffffffffffffffffffffffffffffff1673ffffffffffffffffffffffffffffffffffffffff16815260200190815260200160002060003373ffffffffffffffffffffffffffffffffffffffff1673ffffffffffffffffffffffffffffffffffffffff16815260200190815260200160002054611be590919063ffffffff16565b90506117053083611331565b5080600660008573ffffffffffffffffffffffffffffffffffffffff1673ffffffffffffffffffffffffffffffffffffffff16815260200190815260200160002060003373ffffffffffffffffffffffffffffffffffffffff1673ffffffffffffffffffffffffffffffffffffffff168152602001908152602001600020819055503373ffffffffffffffffffffffffffffffffffffffff168373ffffffffffffffffffffffffffffffffffffffff167f5893bf91422655305d16e66cf1b6ecd4645b071f6904767d5d79bd91556e3fcf836040518082815260200191505060405180910390a3505050565b600061188282600260003373ffffffffffffffffffffffffffffffffffffffff1673ffffffffffffffffffffffffffffffffffffffff16815260200190815260200160002060008673ffffffffffffffffffffffffffffffffffffffff1673ffffffffffffffffffffffffffffffffffffffff16815260200190815260200160002054611be590919063ffffffff16565b600260003373ffffffffffffffffffffffffffffffffffffffff1673ffffffffffffffffffffffffffffffffffffffff16815260200190815260200160002060008573ffffffffffffffffffffffffffffffffffffffff1673ffffffffffffffffffffffffffffffffffffffff168152602001908152602001600020819055508273ffffffffffffffffffffffffffffffffffffffff163373ffffffffffffffffffffffffffffffffffffffff167f8c5be1e5ebec7d5bd14f71427d1e84f3dd0314c0f7b2291e5b200ac8c7c3b925600260003373ffffffffffffffffffffffffffffffffffffffff1673ffffffffffffffffffffffffffffffffffffffff16815260200190815260200160002060008773ffffffffffffffffffffffffffffffffffffffff1673ffffffffffffffffffffffffffffffffffffffff168152602001908152602001600020546040518082815260200191505060405180910390a36001905092915050565b6000600260008473ffffffffffffffffffffffffffffffffffffffff1673ffffffffffffffffffffffffffffffffffffffff16815260200190815260200160002060008373ffffffffffffffffffffffffffffffffffffffff1673ffffffffffffffffffffffffffffffffffffffff16815260200190815260200160002054905092915050565b600360009054906101000a900473ffffffffffffffffffffffffffffffffffffffff1673ffffffffffffffffffffffffffffffffffffffff163373ffffffffffffffffffffffffffffffffffffffff16141515611ad057600080fd5b600073ffffffffffffffffffffffffffffffffffffffff168173ffffffffffffffffffffffffffffffffffffffff1614151515611b0c57600080fd5b8073ffffffffffffffffffffffffffffffffffffffff16600360009054906101000a900473ffffffffffffffffffffffffffffffffffffffff1673ffffffffffffffffffffffffffffffffffffffff167f7f11fe0c7098e1a76afcc68f35abaa07ef156fa7d6dd2d39664812fe37348d1660405160405180910390a380600360006101000a81548173ffffffffffffffffffffffffffffffffffffffff021916908373ffffffffffffffffffffffffffffffffffffffff16021790555050565b6000828211151515611bda57fe5b818303905092915050565b6000808284019050838110151515611bf957fe5b8091505092915050565b611c5581600160003073ffffffffffffffffffffffffffffffffffffffff1673ffffffffffffffffffffffffffffffffffffffff16815260200190815260200160002054611bcc90919063ffffffff16565b600160003073ffffffffffffffffffffffffffffffffffffffff1673ffffffffffffffffffffffffffffffffffffffff16815260200190815260200160002081905550611cea81600160003373ffffffffffffffffffffffffffffffffffffffff1673ffffffffffffffffffffffffffffffffffffffff16815260200190815260200160002054611be590919063ffffffff16565b600160003373ffffffffffffffffffffffffffffffffffffffff1673ffffffffffffffffffffffffffffffffffffffff168152602001908152602001600020819055503373ffffffffffffffffffffffffffffffffffffffff163073ffffffffffffffffffffffffffffffffffffffff167fddf252ad1be2c89b69c2b068fc378daa952ba7f163c4a11628f55a4df523b3ef836040518082815260200191505060405180910390a3505600a165627a7a723058203709392e93dec254071ae4edaeeb9f12f17b6c4174e07b8413dd2ab8a84f8b4d0029",
  "source": "/*\n    Copyright 2017-2018 Phillip A. Elsasser\n\n    Licensed under the Apache License, Version 2.0 (the \"License\");\n    you may not use this file except in compliance with the License.\n    You may obtain a copy of the License at\n\n    http://www.apache.org/licenses/LICENSE-2.0\n\n    Unless required by applicable law or agreed to in writing, software\n    distributed under the License is distributed on an \"AS IS\" BASIS,\n    WITHOUT WARRANTIES OR CONDITIONS OF ANY KIND, either express or implied.\n    See the License for the specific language governing permissions and\n    limitations under the License.\n*/\n\npragma solidity ^0.4.18;\n\nimport \"../Creatable.sol\";\nimport \"zeppelin-solidity/contracts/token/StandardToken.sol\";\n\n\n/// @title Market Token\n/// @notice Our membership token.  Users must lock tokens to enable trading for a given Market Contract\n/// as well as have a minimum balance of tokens to create new Market Contracts.\n/// @author Phil Elsasser <phil@marketprotocol.io>\ncontract MarketToken is StandardToken, Creatable {\n\n    string public constant name = \"Market Token\";\n    string public constant symbol = \"MKT\";\n    uint8 public constant decimals = 18;\n\n    uint public constant INITIAL_SUPPLY = 10**27; // 1 billion w. 18 decimals\n\n    uint public lockQtyToAllowTrading;\n    uint public minBalanceToAllowContractCreation;\n\n    mapping(address => mapping(address => uint)) contractAddressToUserAddressToQtyLocked;\n\n    event UpdatedUserLockedBalance(address indexed contractAddress, address indexed userAddress, uint balance);\n\n    function MarketToken(uint qtyToLockForTrading, uint minBalanceForCreation) public {\n        lockQtyToAllowTrading = qtyToLockForTrading;\n        minBalanceToAllowContractCreation = minBalanceForCreation;\n        totalSupply = INITIAL_SUPPLY;\n\n        balances[msg.sender] = INITIAL_SUPPLY; // for now allocate all tokens to creator\n    }\n\n    /*\n    // EXTERNAL METHODS\n    */\n\n    /// @notice checks if a user address has locked the needed qty to allow trading to a given contract address\n    /// @param marketContractAddress address of the MarketContract\n    /// @param userAddress address of the user\n    /// @return true if user has locked tokens to trade the supplied marketContractAddress\n    function isUserEnabledForContract(address marketContractAddress, address userAddress) external view returns (bool) {\n        return contractAddressToUserAddressToQtyLocked[marketContractAddress][userAddress] >= lockQtyToAllowTrading;\n    }\n\n    /// @notice checks if a user address has enough token balance to be eligible to create a contract\n    /// @param userAddress address of the user\n    /// @return true if user has sufficient balance of tokens\n    function isBalanceSufficientForContractCreation(address userAddress) external view returns (bool) {\n        return balances[userAddress] >= minBalanceToAllowContractCreation;\n    }\n\n    /// @notice allows user to lock tokens to enable trading for a given market contract\n    /// @param marketContractAddress address of the MarketContract\n    /// @param qtyToLock desired qty of tokens to lock\n    function lockTokensForTradingMarketContract(address marketContractAddress, uint qtyToLock) external {\n        uint256 lockedBalance = contractAddressToUserAddressToQtyLocked[marketContractAddress][msg.sender].add(\n            qtyToLock\n        );\n        transfer(this, qtyToLock);\n        contractAddressToUserAddressToQtyLocked[marketContractAddress][msg.sender] = lockedBalance;\n        UpdatedUserLockedBalance(marketContractAddress, msg.sender, lockedBalance);\n    }\n\n    /// @notice allows user to unlock tokens previously allocated to trading a MarketContract\n    /// @param marketContractAddress address of the MarketContract\n    /// @param qtyToUnlock desired qty of tokens to unlock\n    function unlockTokens(address marketContractAddress, uint qtyToUnlock) external {\n        uint256 balanceAfterUnLock = contractAddressToUserAddressToQtyLocked[marketContractAddress][msg.sender].sub(\n            qtyToUnlock\n        );  // no need to check balance, sub() will ensure sufficient balance to unlock!\n        contractAddressToUserAddressToQtyLocked[marketContractAddress][msg.sender] = balanceAfterUnLock;        // update balance before external call!\n        transferLockedTokensBackToUser(qtyToUnlock);\n        UpdatedUserLockedBalance(marketContractAddress, msg.sender, balanceAfterUnLock);\n    }\n\n    /// @notice get the currently locked balance for a user given the specific contract address\n    /// @param marketContractAddress address of the MarketContract\n    /// @param userAddress address of the user\n    /// @return the locked balance\n    function getLockedBalanceForUser(address marketContractAddress, address userAddress) external view returns (uint) {\n        return contractAddressToUserAddressToQtyLocked[marketContractAddress][userAddress];\n    }\n\n    /*\n    // EXTERNAL - ONLY CREATOR  METHODS\n    */\n\n    /// @notice allows the creator to set the qty each user address needs to lock in\n    /// order to trade a given MarketContract\n    /// @param qtyToLock qty needed to enable trading\n    function setLockQtyToAllowTrading(uint qtyToLock) external onlyCreator {\n        lockQtyToAllowTrading = qtyToLock;\n    }\n\n    /// @notice allows the creator to set minimum balance a user must have in order to create MarketContracts\n    /// @param minBalance balance to enable contract creation\n    function setMinBalanceForContractCreation(uint minBalance) external onlyCreator {\n        minBalanceToAllowContractCreation = minBalance;\n    }\n\n    /*\n    // PRIVATE METHODS\n    */\n\n    /// @dev returns locked balance from this contract to the user's balance\n    /// @param qtyToUnlock qty to return to user's balance\n    function transferLockedTokensBackToUser(uint qtyToUnlock) private {\n        balances[this] = balances[this].sub(qtyToUnlock);\n        balances[msg.sender] = balances[msg.sender].add(qtyToUnlock);\n        Transfer(this, msg.sender, qtyToUnlock);\n    }\n\n}\n",
  "sourcePath": "/home/parallels/MARKETProtocol/contracts/tokens/MarketToken.sol",
  "compiler": {
    "name": "solc",
    "version": "0.4.19+commit.c4cbbb05.Emscripten.clang"
  },
  "schemaVersion": "2.0.0",
  "updatedAt": "2018-04-10T02:08:58.199Z"
}